:100000000C94B7020C94FE020C94FE020C94FE02B7
:100010000C94FE020C94FE020C94FE020C94FE0260
:100020000C94FE020C94FE020C944D250C94212697
:100030000C947C200C94FE020C94FE020C94FE02A4
:100040000C94FE020C94FE020C94FE020C94FE0230
:100050000C94FE020C94D3200C94FE020C94FE022D
:100060000C94FE020C94FE020C94FE020C94FE0210
:100070000C94FE020C94FE020C94FE020C94FE0200
:100080000C94FE020C94FE020C94FE020C94FE02F0
:100090000C94FE020C94FE020C94FE020C94FE02E0
:1000A0000C94FE020C94FE020C94FE0229001E0029
:1000B0001F0020002100220023002400250026002C
:1000C00027002D002E00350000004A002B001400F0
:1000D0001A0008001500170000001C0018000C0092
:1000E000120013002F0030002A004D0039000400D8
:1000F0001600070009000A0000000B000D000E00AA
:100100000F0033003400000028004C00E1001D0007
:100110001B00060019000500000011001000360049
:1001200037003800E500000052000000E000000049
:10013000E20000002C00015100002C000000E20051
:10014000000000005000000051004F0001000100BD
:100150000100010001000100010001000100010097
:10016000010001000100010000004B00010001003E
:10017000010001000100010000005F00600061005B
:10018000C75CC65CC45CC35C01004E00010001009A
:10019000010001000100010000005C005D005E0044
:1001A000CB5CC85CC95C0000010049000100010093
:1001B0000100010001000100000059005A005B002D
:1001C000010001000100000001000000010000002A
:1001D00001000000010001000000620000000100B9
:1001E00000000000010000000100010000047F3F4A
:1001F0001F643214643214783C1E1E140A05222334
:10020000252628292A2C2D2F3032333536383A3BF3
:100210003D3E4042434547494A4C4E505153555745
:10022000595A5C5E6062646668696B6D6F71737564
:1002300077797B7D7F81838587898A8C8E90929464
:1002400096989A9C9E9FA1A3A5A7A8AAACAEAFB171
:10025000B3B4B6B8B9BBBCBEBFC1C2C3C5C6C7C9BB
:10026000CACBCCCDCED0D1D2D2D3D4D5D6D7D7D875
:10027000D9D9DADADBDBDBDCDCDCDCDCDDDDDDDDC7
:10028000DCDCDCDCDCDBDBDBDADAD9D9D8D7D7D6CF
:10029000D5D4D3D2D2D1D0CECDCCCBCAC9C7C6C586
:1002A000C3C2C1BFBEBCBBB9B8B6B4B3B1AFAEACCC
:1002B000AAA8A7A5A3A19F9E9C9A98969492908E77
:1002C0008C8A89878583817F7D7B79777573716F50
:1002D0006D6B6968666462605E5C5A59575553512C
:1002E000504E4C4A4947454342403E3D3B3A3836E2
:1002F000353332302F2D2C2A292826252322FFAAF8
:100300007F554000010101010101010101020202CA
:1003100002020202020203030303030303030404B1
:10032000040404040405050505050606060606077B
:100330000707070708080808090909090A0A0A0B34
:100340000B0B0C0C0C0D0D0D0E0E0E0F0F0F1010D5
:10035000111111121213131414151516161717185C
:100360001819191A1A1B1B1C1D1D1E1E1F202021C7
:100370002222232424252626272829292A2B2C2D0E
:100380002D2E2F30313232333435363738393A3B2F
:100390003C3D3E3F404142434445464748494A4C24
:1003A0004D4E4F50515354555658595A5B5D5E5FF0
:1003B000616264656668696B6C6D6F707273757786
:1003C000787A7B7D7E8082838587888A8C8E8F91E8
:1003D000939596989A9C9EA0A2A3A5A7A9ABADAF12
:1003E000B1B3B5B7BABCBEC0C2C4C6C9CBCDCFD1FC
:1003F000D4D6D8DBDDDFE2E4E7E9EBEEF0F3F5F8A5
:10040000FAFDFF0A034D004F004E003100000016B8
:100410000371006D006B006200750069006C006480
:10042000006500720000000403090409023B000299
:100430000100A0FA090400000103010100092111D3
:100440000100012240000705810308000A09040198
:1004500000010300000009211101000122B600077C
:1004600005820320000A1201000200000008EDFED0
:10047000606001000102000105010902A10185027D
:100480000901A10005091901290815002501950890
:10049000750181020501093009311581257F950219
:1004A0007508810609381581257F95017508810633
:1004B000050C0A38021581257F950175088106C053
:1004C000C005010980A101850319012AB7001501A2
:1004D00026B700950175108100C0050C0901A10126
:1004E000850419012AA002150126A00295017510A4
:1004F0008100C005010906A1018505050719E0294C
:10050000E7150025019508750181020507190029E5
:10051000EF1500250195F0750181020508190129E3
:1005200005950575019102950175039101C00501BD
:100530000906A101050719E029E71500250195081D
:10054000750181029501750881010507190029FFD0
:10055000150026FF00950675088100050819012978
:1005600005950575019102950175039101C011244E
:100570001FBECFEFDAE0DEBFCDBF04B603FE27C05B
:1005800080911A0390911B03A0911C03B0911D034D
:100590008730904BA740B04BD1F410921A031092C1
:1005A0001B0310921C0310921D0314BE84B7877F97
:1005B00084BF0FB6F894A8958091600088618093FD
:1005C0006000109260000FBEE0E0F8E3099511E0D2
:1005D000A0E0B1E0E0ECF1E502C005900D92A43C92
:1005E000B107D9F723E0A4ECB1E001C01D92AA3114
:1005F000B207E1F70E944D130C94B6280C9400004A
:100600000895089581E00895089581E008950C9477
:10061000020308950C9409031F93CF93DF9300D036
:1006200000D00F92CDB7DEB749835A836B833091E8
:10063000C60189819A8131111DC06623B9F0222338
:10064000A9F00E944109182F682F89819A810E9480
:10065000EE0869817A81812F0F900F900F900F9093
:100660000F90DF91CF911F910C94910F0E941A0966
:10067000182FEFCF0E94410969817A81EDCFFC01EB
:10068000262F408151816281738184810C940C03F7
:1006900081E00895CF93DF93EC0160E00E943F0377
:1006A000BE01DF91CF910C940A030E94BC110E94FD
:1006B000CB030C94E0110C94E21108950E9497076B
:1006C0000E945D032FEF84E39CE021508040904026
:1006D000E1F700C000000C94F7200F931F93CF9315
:1006E000DF938C0161E00E943F03EC01B8010E949E
:1006F00007038823D9F1B801CE010E94681D882321
:10070000A9F1B801CE010E94BA1D882379F1B80180
:10071000CE010E94DD1E882349F1B801CE010E945E
:10072000051C882319F1F8018281882361F0CB35FB
:10073000FDE5DF0721F170F4C115ECE5DE07A1F05E
:10074000CF3DDC45C9F0C801DF91CF911F910F91DA
:100750000C940503CC358DE5D807A1F0CD35DD45EA
:1007600091F70E941E0DEFCF0E945E0380E0DF91A3
:10077000CF911F910F9108950E94950EF7CF0E947F
:10078000270DE1CF0E942A0DDECF0C94040381E0F7
:1007900008950C94C7030895CF93C82F0E94C503F2
:1007A0008C2FCF910C94C903CF93DF93CDB7DEB7D5
:1007B0002B970FB6F894DEBF0FBECDBF4F8358877F
:1007C00069877A878B8761110E944D0D1E821D8279
:1007D00085E0FE013796DE01119601900D928A9513
:1007E000E1F78C819D81892B89F449815A816B8144
:1007F0007C818D819E810E944D0C2B960FB6F894C2
:10080000DEBF0FBECDBFDF91CF91089589819A8160
:1008100089238F3F51F3CE0101960E944803811135
:10082000E4CFEBCFFC01808191810C948309CF93BD
:10083000C82F882309F48BC08238C1F40E940C1F92
:1008400081FD85C089E30E94E70C0E947D0D2FEF9A
:1008500081EE94E0215080409040E1F700C000001C
:1008600089E30E94EE0CCF910C947D0D8338A1F4A6
:100870000E940C1F80FD6BC083E50E94E70C0E9464
:100880007D0D2FEF81EE94E0215080409040E1F704
:1008900000C0000083E5E5CF8438A1F40E940C1F5E
:1008A00082FD55C087E40E94E70C0E947D0D2FEF6A
:1008B00081EE94E0215080409040E1F700C00000BC
:1008C00087E4CFCF8CEF8C0F813A90F46C2F80911E
:1008D0000001909101010E94801F882329F08C2F34
:1008E0000E94EE0C0E947D0D8C2F0E94E70CBBCF66
:1008F00080E28C0F883048F4C77081E001C0880F17
:10090000CA95EAF70E94300DAECFEBE5EC0FE3306D
:1009100040F4F0E0EA5AFE4F808190E0CF910C94D1
:10092000401FE8E5EC0FE73150F4F0E0EE0FFF1F59
:10093000E85DFE4F80819181CF910C94561FCD3E92
:1009400030F08C2F0E94DB13CF910C94AE14CF911A
:100950000895882309F452C0823871F40E940C1F54
:1009600081FF4CC089E30E94E70C0E947D0D89E362
:100970000E94EE0C0C947D0D833859F40E940C1FDC
:1009800080FF3CC083E50E94E70C0E947D0D83E55B
:10099000EFCF843859F40E940C1F82FF2FC087E4E8
:1009A0000E94E70C0E947D0D87E4E2CF9CEF980F38
:1009B000913AF0F290E2980F983050F4877091E0FD
:1009C00001C0990F8A95EAF7892F0E94360DD2CF80
:1009D0009BE5980F933020F490E080E00C94401F4A
:1009E00098E5980F973120F490E080E00C94561F22
:1009F0008D3E20F00E9435140C94AE1408951F9380
:100A0000CF93DF93182FEB010E941704209731F446
:100A1000812FDF91CF911F910C94A9048FE99FE062
:100A20000197F1F700C000002197F0CF70E060E07F
:100A3000893311F460E570E00C94FF04882321F001
:100A40000E94300D0C947D0D0895882321F00E94A2
:100A5000360D0C947D0D0895BF92CF92DF92EF92E8
:100A6000FF920F931F93CF93DF936C01D62FC72F65
:100A7000FC011281058102950F700E94050DE82E80
:100A80008823A1F0E12E112389F08C2F807F803400
:100A900029F080E28D0FE12C883040F082E00E9446
:100AA000CE0D0E94050D91E0E82EE926BC2EB294F1
:100AB0009FE0B922EB2DF0E0E854F74D0C941D288F
:100AC0000C2F0F70C07F11F00295007F1123A9F049
:100AD000002359F080E28D0F883010F0D11109C049
:100AE000802F0E94300D0E947D0D8D2F0E941704D3
:100AF00014C0802F0E94400DF6CF8D2F0E94A904B4
:100B0000002359F080E28D0F883010F0D1112CC0F5
:100B1000802F0E94360D0E947D0D2B2D2850330B07
:100B20002430310520F40E940C1F0E94CC03EE20DB
:100B300009F49EC10E94010D80FD9AC1F601128246
:100B40000E94FB0C0E945208C6010E9459070E9495
:100B5000FB0CDF91CF911F910F91FF90EF90DF90F1
:100B6000CF90BF900C947308802F0E94460DD3CF76
:100B7000FC2FFF70FF2EC07FC03219F0F29480EF7F
:100B8000F822DD2369F0D13049F1112391F10023DE
:100B900051F1F601858180FFA8CF8F70858323C036
:100BA000112381F0011106C00E94600D8F290E945F
:100BB0001E05B3CF0130C1F70E94600D8F290E943E
:100BC000660DABCF011106C00E94730D8F2D0E94E0
:100BD0002505A3CF013009F4A0CFF6CF112329F0CA
:100BE000063008F09ACF8F2DE2CF053008F095CF70
:100BF000EDCF002359F3D93349F4FFEF27EE33E06B
:100C0000F15020403040E1F700C000008D2F0E94DD
:100C1000A90483CF8C2F86958695837069F08130E7
:100C200009F07BCF8D2F9C2F9370111102C090E0A3
:100C300080E00E94561F71CF8D2F9C2F9370111151
:100C400002C090E080E00E94401F67CF8D2F1123EB
:100C500029F00E94DB130E94AE145FCF0E9435146E
:100C6000FACF8C2F837009F041C0111156CF4D2F50
:100C7000429546954770440F440F0D2F0F7010E0BA
:100C800030E020E0042E04C0000F111F221F331F8C
:100C90000A94D2F760E070E0CB01D4FF0FC06FE0A0
:100CA00070E080E090E004C0660F771F881F991FF6
:100CB0004A95D2F76095709580959095C695C695A2
:100CC000C370602B712B822B932BC23049F058F4E8
:100CD000C13019F00E94040820CF0E94F2071DCFF6
:100CE0000E9416081ACF0E94F00717CF869511238D
:100CF00011F08C2F8170882309F40FCF4D2F42956E
:100D000046954770440F440F0D2F0F7010E030E0F0
:100D100020E0042E04C0000F111F221F331F0A946D
:100D2000D2F760E070E0CB01D4FF0FC06FE070E05D
:100D300080E090E004C0660F771F881F991F4A95D6
:100D4000D2F76095709580959095C695C695C370BD
:100D5000602B712B822B932BC23049F058F4C13099
:100D600019F00E94C908D9CE0E94B708D6CE0E94B9
:100D7000DB08D3CE0E942C08D0CECF70112329F0EF
:100D80008C2F0E9452088D2F12CF8D2F0E94250587
:100D90008C2F0E947308C1CED23F89F160F4D03FFE
:100DA000C9F0D13F29F1112309F442C001119DCEB0
:100DB0008C2F8F7121C0D33F39F1D43FA1F711237C
:100DC00069F1CF718C2F0E94520863E08C2F0E9432
:100DD000B30DA3CE112341F0053008F09ECE8C2F29
:100DE0008F710E94960899CE063008F096CEF7CF04
:100DF0008C2F8F71112369F20E9452088ECE8C2F96
:100E00008F711123C9F3C5CF112329F08C2F8F7156
:100E10000E943D0882CE0E9438087FCE81E00E9469
:100E2000CE0D023008F479CE82E00E94CE0D75CE50
:100E3000002359F0D93309F0E9CE8FEF97EEE3E0C4
:100E400081509040E040E1F7DFCE8C2F8F71A1CF31
:100E50004C2F4F706D2FC6010E948D0F0E94B1095B
:100E60005CCE4C2F4F706D2FC6010E94900F55CE57
:100E7000DF91CF911F910F91FF90EF90DF90CF9076
:100E8000BF9008950F931F93CF93DF93EC01688178
:100E900079818A810E948D098C010E94ED080E944F
:100EA000EF07B801CE01DF91CF911F910F910C9404
:100EB0002C05CF93DF93EC018B819C81892B29F04A
:100EC0008881998189238F3F59F4DF91CF910895CB
:100ED000CE010E944207CE01DF91CF910C944A03CC
:100EE000CE010E946D038111F3CF0E94050D88236E
:100EF00061F38A81882349F382E0DF91CF910C94DA
:100F0000CE0D90E080E00E94401F90E080E00E94C3
:100F1000561F0E944D0D0E945D0D0E947D0D0E9486
:100F2000D5150C94AE140E94F50C0C9481070E9408
:100F30003D0D0C949307E92FE295EF70E250EE30EF
:100F400070F4F0E0E853F74D0C941D28803F19F041
:100F500020F4883E20F481E00895843FE1F380E0AE
:100F60000895883EC0F3813FD1F7F5CF93FB8827E2
:100F700080F90895FC01808191810E9483090C947D
:100F80009B07CF93DF9300D000D00F92CDB7DEB791
:100F90000F900F900F900F900F90DF91CF910895C9
:100FA000CF93DF9300D000D000D0CDB7DEB7269628
:100FB0000FB6F894DEBF0FBECDBFDF91CF9108957D
:100FC00008950C94E0070E94E1076093FD0170937F
:100FD000FE018093FF01909300020C948107089515
:100FE0000C94E3070F931F930091FD011091FE01F4
:100FF0002091FF0130910002602B712B822B932BEB
:101000001F910F910C94E3070F931F930091FD0123
:101010001091FE012091FF013091000260237123A5
:10102000822393231F910F910C94E3070F931F9337
:101030000091FD011091FE012091FF01309100020D
:1010400060277127822793271F910F910C94E30744
:101050000C94E0070C9428080E942A086093F90178
:101060007093FA018093FB019093FC010C9481072B
:1010700060E070E0CB010C942C080F931F9341E0CB
:1010800050E060E070E08A019B0104C0000F111F76
:10109000221F331F8A95D2F7C901B8011F910F9102
:1010A0000C942C080F931F9341E050E060E070E037
:1010B00004C0440F551F661F771F8A95D2F7809191
:1010C000F9019091FA01A091FB01B091FC018A0114
:1010D0009B01082B192B2A2B3B2BC901B8011F910F
:1010E0000F910C942C080F931F9341E050E060E0A7
:1010F00070E004C0440F551F661F771F8A95D2F712
:10110000CB01BA0160957095809590950091F90199
:101110001091FA012091FB013091FC0160237123B1
:10112000822393231F910F910C942C080F931F93EC
:1011300041E050E060E070E004C0440F551F661FBE
:10114000771F8A95D2F78091F9019091FA01A091C9
:10115000FB01B091FC018A019B01082719272A276E
:101160003B27C901B8011F910F910C942C080F93D4
:101170001F930091F9011091FA012091FB01309128
:10118000FC01602B712B822B932B1F910F910C94E0
:101190002C080F931F930091F9011091FA012091EF
:1011A000FB013091FC0160237123822393231F9163
:1011B0000F910C942C080F931F930091F90110913B
:1011C000FA012091FB013091FC01602771278227F1
:1011D00093271F910F910C942C0808959295907F5E
:1011E000890F982F977041E001C0440F9A95EAF754
:1011F00086958695869595E0899FF0011124E9539F
:10120000FE4F30E020E070E05191DF011197CB01FB
:10121000022E02C0969587950A94E2F78170819517
:101220008527842385278C932F5F3F4F25303105F9
:1012300059F708959295907F890F982F977086950A
:101240008695869525E0829FF0011124E953FE4F93
:1012500050E040E080E0219130E0092E02C0369558
:1012600027950A94E2F721703327042E01C0220F3C
:101270000A94EAF7822B4F5F5F4F4530510559F7CB
:101280000895BF92CF92DF92EF92FF920F931F9338
:10129000CF93DF938C01C090F901D090FA01E090D8
:1012A000FB01F090FC018091FD019091FE01A09165
:1012B000FF01B0910002C82AD92AEA2AFB2ACFE10D
:1012C000D0E0BC2ED701C6010C2E04C0B695A79560
:1012D000979587950A94D2F780FD0EC0219788F7DD
:1012E000B12C8B2DDF91CF911F910F91FF90EF903B
:1012F000DF90CF90BF900895B8018C2F0E94C1104D
:10130000019761F3EECFCF93DF93EC010E94410987
:10131000BE01DF91CF910C94C1101F93CF93DF9347
:10132000EB019091C601992331F0CB01DF91CF9170
:101330001F910C948309882379F0CB010E94410905
:10134000182F682FCE010E94EE08BE01812FDF9179
:10135000CF911F910C94C110CB010E941A09182F34
:10136000F4CFEF92FF920F931F93CF93DF938C01F3
:10137000892B81F0F12CEE24E394E8012196F80109
:101380008491843770F4843008F05FC08130B1F00C
:101390008230A1F1DF91CF911F910F91FF90EF90DB
:1013A0000895853709F44CC008F43DC09CE7980FB8
:1013B000903780F78F770E94A90449C00E5F1F4FB6
:1013C000FE01849190E2980F983060F48770FE2DB2
:1013D00001C0FF0F8A95EAF78F2F0E94500D0E94DF
:1013E0007D0D02C00E9417048F2D815030F2EFE96D
:1013F000FFE03197F1F700C00000F7CF0E5F1F4FFD
:10140000FE01849190E2980F983050F48770FE2D81
:1014100001C0FF0F8A95EAF78F2F0E94560DDFCF8C
:101420000E94A904E1CF0E5F1F4FFE01C491C1507D
:10143000D8F28FE99FE00197F1F700C00000F7CFE5
:101440000E5F1F4FFE01F490CFCF0E9417048E0154
:10145000CBCF1F93CF93DF93C091010216E0809111
:1014600002028C1304C0DF91CF911F910895D0E048
:101470001C9FF0011D9FF00D1124ED5FFD4F408179
:10148000518162817381848195810E94D007219668
:10149000C770E5CF4091330250913402609135021C
:1014A0007091360280913702909138020C94D007E7
:1014B0001F93CF93DF9380913802807FA9F48091AE
:1014C0003502882389F080910102C0910202609167
:1014D000330270913402A0913602B0913702D62FB8
:1014E000D72316E0C81304C0DF91CF911F91089550
:1014F00090E0109711F0DF3F19F401968770F2CF5A
:10150000189F9001199F300D1124F901ED5FFD4FD7
:1015100041814713F2CF40814613EFCF4281411101
:10152000ECCF438154814A1B5B0B483C510528F7A3
:10153000809138028F70806180933802F901E85FF2
:10154000FD4F80818F708061808383E392E00E94F1
:101550005907DF91CF911F910C94290AAF92BF9246
:10156000CF92DF92EF92FF920F931F93CF93DF936F
:10157000CDB7DEB761970FB6F894DEBF0FBECDBF13
:101580008C0185E0F801DE011D9601900D928A958F
:10159000E1F7F801E28083E3C82E82E0D82E609163
:1015A0003602709137026115710509F45AC19091A4
:1015B000330220913402892F82238F3F09F451C1D5
:1015C00040815181A380B480F0903502F501E61B83
:1015D000F70BFF2009F4F6C080913802382F307FD6
:1015E000E83CF10508F0AFC0311179C0FE2C25139D
:1015F00023C0941321C0E1101FC08F7080618093BD
:1016000038020E944A0AC6010E9459078091380296
:10161000F80185838F2D61960FB6F894DEBF0FBE5B
:10162000CDBFDF91CF911F910F91FF90EF90DF9091
:10163000CF90BF90AF900895AB2829F0842F8523D9
:101640008F3F09F027C180E0F82FF170DF2E80FF77
:101650003CC0809101022091020236E0821315C045
:101660004D875E878D859E850E948309292F22954F
:101670002F702230F0F0243018F59F70F1F0F8014F
:101680009581907FD1F4D12C1EC090E0389FF0015D
:10169000399FF00D1124ED5FFD4F6181651306C088
:1016A0006081641303C06281E6120FC001968770E7
:1016B000D5CF9F7011F0882331F3805E883018F306
:1016C000C8010E945907FD2CA5CFEE2009F4A2CF36
:1016D00080913802816080933802F12C9BCF2513D2
:1016E00006C0941304C0F801EE2009F487C0C801B5
:1016F0000E94BA07882319F1EE2009F1809138027F
:10170000803270F0209133023091340238872F8379
:101710001986BB86AA868C87CE0107960E94590738
:1017200086E0F801A3E3B2E001900D928A95E1F71B
:101730000E94580A0E944A0AFF24F3946BCFC80102
:101740000E945907F9CF311113C07A2DB98AA88A9E
:101750006E2D89890E94C10783E392E00E94590798
:1017600086E0F60111928A95E9F70E944A0AB5CF00
:1017700025130FC094130DC0E1100BC0F801858331
:10178000C8010E94590786E0F60111928A95E9F78F
:1017900041CFC8010E94BA07882389F2EE2079F26E
:1017A00080913802803208F4BBCF2091330230910F
:1017B00034023A8329831B82BD82AC828E83CE01A0
:1017C0000196ACCFE83CF10508F03EC0FE2CEE20BF
:1017D00009F4B5CF25132AC0941328C0809138028C
:1017E00080FD1BC0982F907FC1F0F8018583903F4A
:1017F00031F0982F907F905F8F70892B8583C8017F
:101800000E94590786E0F801A3E3B2E001900D922F
:101810008A95E1F70E944A0AFDCE86E0F801A3E32B
:10182000B2E001900D928A95E1F7F4CEC8010E94D2
:10183000BA07811175CF8091380281608093380298
:10184000C8010E945907E6CE7A2DB98AA88A6E2D62
:1018500089890E94C10786E0F60111928A95E9F70D
:10186000D9CFEE2009F46BCFC8010E94BA07F82E39
:10187000882309F464CF86E0F801A3E3B2E0019085
:101880000D928A95E1F783E392E00E9412040E9490
:10189000580AC0CF81E08E25D7CE1F93CF93DF9318
:1018A000CDB7DEB72C970FB6F894DEBF0FBECDBF15
:1018B0004F83588769877A878B879C87CE010796E5
:1018C0000E94AE0A882369F08A859B85892B39F0AE
:1018D0004F815885842F85238F3F09F071C016E012
:1018E0005FC086E0FE013796DE01119601900D92F1
:1018F0008A95E1F78A859B85892B89F38F81988565
:1019000089238F3F61F32091020230E0C9010196E3
:1019100087709927409101024817190671F40E94B7
:101920009707109202021092010286E0E3E3F2E0D0
:10193000DF011D928A95E9F7D2CF96E0929FD00100
:10194000939FB00D1124AD5FBD4FFE013196019004
:101950000D929A95E1F7809302020E94290ABFCF67
:10196000819FC00111248D5F9D4F0E94AE0A882384
:10197000E9F0E09101021E9FF0011124ED5FFD4F9F
:101980004081518162817381848195810E94D00759
:101990008091010290E0019687709927809301025F
:1019A00080910102909102028913DACF2C960FB632
:1019B000F894DEBF0FBECDBFDF91CF911F91089588
:1019C00069857A858B859C850E94D00788CF682F92
:1019D00080910001909101010C940020682F80916A
:1019E0000001909101010C940B20809100019091D5
:1019F00001010C9416208091390285958595859575
:101A000008958091390287700895909139029770F6
:101A100081E009F480E008959091BF0292FB2227B3
:101A200020F9281751F080FB92F99093BF02809122
:101A3000BE029091BF020C94110E08958091BF02D6
:101A400082FB882780F991E089270C940C0D81E0B6
:101A50000C940C0D80E00C940C0D80915D020895A7
:101A600090915D02892B80935D02089580959091FD
:101A70005D02982390935D02089510925D0208958F
:101A800090915C02892B80935C02089580959091DF
:101A90005C02982390935C02089510925C02089572
:101AA00090915B02892B80935B02089580959091C1
:101AB0005B02982390935B02089510925B02089555
:101AC00080913A02089508950C94630D9091BF029D
:101AD00092FD08C090913A02981721F080933A0243
:101AE0000C94640D089580913A02882329F0109295
:101AF0003A0280E00C94640D0895E0910001F091A9
:101B0000010180915D028083E0910001F09101016B
:101B1000808190915C02892B8083E0910001F0919B
:101B20000101808190915B02892B808390913A0220
:101B3000992381F0E0910001F09101018081892BCE
:101B4000808380910001909101010E946C1F81119E
:101B50000E94730D80910001909101010C94181F57
:101B600008950C94B00D9091BF0292FD10C098E0C2
:101B7000899F90011124622B609339020E945208C0
:101B8000809139028595859585950C94B10D0C94BD
:101B900052081092390280E00C94B10D90913902F4
:101BA0008095892380933902282F277039F4282FB4
:101BB000082E000C330B9217130621F49091BF02EC
:101BC00092FF07C08595859585950E9473080C94B2
:101BD000C90D08956FEF7FEF90E080E00C94A0288E
:101BE00090E080E00E947C2821E0893E9E4F09F031
:101BF00020E0822F089582E090E00C946E2883E02C
:101C000090E00C946E28CF9384E090E00E946E28C0
:101C1000C82F82E290E00E946E28982F8C2FCF91DF
:101C20000895CF93C92F682F84E090E00E94822806
:101C30006C2F82E290E0CF910C948228AB01BC0122
:101C40008FE090E00C949428AB01BC0183E190E01C
:101C50000C94942860E070E0CB010C94240E60E0BA
:101C600070E0CB010E941E0E0C942A0E69EE7EEFEE
:101C700090E080E00E94A02860E082E090E00E9476
:101C8000822860E083E090E00E9482281092FD01AB
:101C90001092FE011092FF011092000260E084E0B9
:101CA00090E00E94822860E082E290E00E94822818
:101CB00060E085E090E00E94822860E086E090E0AD
:101CC0000E9482286FEF87E090E00E94822840E027
:101CD00050E0BA0188E090E00E94942860E08DE036
:101CE00090E00E94822840E050E0BA0188E190E054
:101CF0000E94942860E087E190E00E94822840E002
:101D000050E0BA018CE190E00E94942870E060E01D
:101D100080E290E00E94A02840E050E0BA0188E113
:101D200090E00E9494280C942F0E0C94360E682F8D
:101D30008EE090E00C9482280E94B82060936D029F
:101D400070936E0280936F029093700260936902A9
:101D500070936A0280936B0290936C02089585B72A
:101D6000806885BF85B7806885BF08950895089508
:101D70000C94B60E08950C94BA0E0E94AF0E8FE923
:101D800091E10E941B210E94B70E0C94B80E81E0D5
:101D900008950C94C70E089508950E94CB0E0C94DC
:101DA000CC0E0E94A3200E94A0120E94241B0C941F
:101DB000BB0E8F929F92AF92BF92CF92DF92EF9223
:101DC000FF920F931F93CF93DF93CDB7DEB72A9780
:101DD0000FB6F894DEBF0FBECDBF0E94C8128111AE
:101DE0000E949C0E5FE5852E52E0952E10E000E0EB
:101DF000A02E802F0E94E4116C01F401E190F1907B
:101E00004F01E816F90609F45EC08091710281FD68
:101E10000E94ED11C7018C259D25B12CEE24E39481
:101E2000F12C9C012E213F21232B09F446C00E9456
:101E3000C90E8823A9F0BE82AF82CE20DF2081E0C8
:101E4000CD2809F480E088870E94AC208160782F3B
:101E50009A8789874E815F8168858A850E94D4032D
:101E6000000F111FF801E15AFD4F80819181E82692
:101E7000F926F182E0820E94571B0E94C9140E9439
:101E80000C1F90915E028917A9F10E940C1F80938C
:101E90005E022A960FB6F894DEBF0FBECDBFDF916B
:101EA000CF911F910F91FF90EF90DF90CF90BF9057
:101EB000AF909F908F900C94CC03B394EE0CFF1CCA
:101EC000F0E1BF12AECF0F5F1F4F0530110509F0D3
:101ED0008FCF8FEF89838A831B820E94AC20816021
:101EE000782F9D838C8349815A816B818D810E94DB
:101EF000D403C1CF2A960FB6F894DEBF0FBECDBF74
:101F0000DF91CF911F910F91FF90EF90DF90CF90D5
:101F1000BF90AF909F908F90089590E080E00895DB
:101F20000895E72FF0E095E0899FE00DF11D112461
:101F300084E0EE0FFF1F8A95E1F7E60FF11DEE0F2B
:101F4000FF1FE455FF4F859194910895FC01EE0F1A
:101F5000FF1FE451FE4F859194910895CF93DF9335
:101F60000E94C510EC01811520E5920708F042C0DF
:101F7000811530E4930708F0BDC0883E910528F52F
:101F8000803E910508F09DC0883A910588F4853A15
:101F9000910508F08FC08130910509F492C0009737
:101FA00009F48FC0049708F08CC0D0E0C0E089C06D
:101FB0008F3B910508F489C0805C9109C03CD10534
:101FC000A0F30E94A60FEC017CC08115904250F452
:101FD000C11581E0D80708F074C0CD3ED10528F3C3
:101FE000D0656FC0C11590E3D90708F079C0CE0164
:101FF0009F70E7CF811525E5920758F5811534E5E7
:10200000930708F0A6C0811542E5940750F4C11566
:1020100081E5D80708F471C0DC2FCC27C16FD06AE6
:1020200050C0982F969596959E0123703327C11521
:10203000D34508F07FC0C1E0D0E002C0CC0FDD1F67
:102040002A95E2F720E2929FC0011124C82BD92BD8
:102050006FC0C11589E5D807A8F4C11598E5D9075F
:1020600008F07CC0C11526E5D20708F09ECF8C2F62
:102070000E945C11C82FD0E0DC2FCC27CC27DF7169
:10208000D0621FC0C1153AE5D30708F46CC0CE0179
:1020900090568115904208F088CF8D2F8F710E9445
:1020A0005C1190E0982F882788279F719C012C2B2A
:1020B000E901E6CFC55AD0E0C957DE4FC881D0E06C
:1020C000D064CE01DF91CF910895C85AD0E0CC0FF3
:1020D000DD1FC75ADE4F0990D881C02DD464F1CFDF
:1020E000CE019927D3FF03C0EC01D86CEACFEC01F5
:1020F000D06CE7CFDF70D06AE4CFCE01E4E09695F4
:102100008795EA95E1F783702C2F26952695237005
:1021100090E2299F90011124382B8C2F8370C1E00D
:10212000D0E002C0CC0FDD1F8A95E2F7C22BD32B83
:10213000DC68C7CFC1E0D0E002C0CC0FDD1F2A951C
:10214000E2F730E2939FC0011124C82BD92BDA6843
:10215000B8CFD82FCC27C46FD06AB3CFDC2FCC2711
:10216000C06FD06AAECF8C2F8F700E945C1134E0AC
:10217000D695C7953A95E1F7CF709C2FEC01D069C1
:10218000A0CF0E94910F0C94AE0F82389105B1F14F
:10219000B0F48133910509F475C048F48932910592
:1021A00009F469C08A32910509F473C00895853332
:1021B000910509F459C08933910501F10895833ED1
:1021C0009105A9F138F4803E9105F9F0823E910520
:1021D00049F10895863E9105A9F1873E9105C9F11F
:1021E000843E910519F52091BF0221FF1FC0809107
:1021F000BE0284FD14C087EE90E008952091BE02D7
:102200002370A1F080EE90E008952091BE0220FDA1
:1022100047C03091BF0230FF09C024FF44C090E0A6
:1022200080E004C02091BE0222FDF7CF08952091E6
:10223000BE0222FD3BC03091BF0230FDE3CF24FF40
:10224000F5CFEDCF2091BE0223FFF0CF24FDE7CFE5
:10225000D2CF2091BE0223FD2CC03091BF0231FFAE
:10226000EECF84EE90E008952091BE0225FFDECFF0
:1022700089E290E008952091BE0225FFD7CF85E343
:1022800090E008952091BE0226FFD0CF8AE290E030
:1022900008952091BE0226FFC9CF81E390E0089502
:1022A00089E390E0089583EE90E0089582EE90E057
:1022B000089586EE90E008959091BE0292FF06C0C8
:1022C000282F28712830F9F4877F846093FF06C097
:1022D000282F28712831F1F4877E84612091BF0274
:1022E00020FF06C0382F38713830D9F4877F8160DD
:1022F00021FF06C0282F28712831D1F4877E816103
:1023000094FD877E0895282F24712430F9F68B7F61
:102310008860DCCF282F2471243101F78B7E8861FF
:10232000DDCF382F3171313019F78E7F8860E0CFE3
:10233000282F2171213121F78E7E8861E1CF80E045
:1023400008950C94EA0D0E94C8122FEF86E791E0E1
:10235000215080409040E1F700C000000E94C81268
:1023600080E00E94E41180FF04C00E94A1110C943F
:10237000F72008950C94A3110E94F00D811102C062
:102380000E94950E0E94FB0D809371020E94030E25
:102390009093BF028093BE020E94BA110E94FF0D6B
:1023A000682F70E090E080E00E94F0076091F901F2
:1023B0007091FA018091FB019091FC010C942A0824
:1023C0000C9400030C940103E82FF0E0EE0FFF1FC4
:1023D000E653FD4F808191810895089580EA8A95A2
:1023E000F1F7089500C008950C94EE11F894E82FC9
:1023F000E295EF70F0E031A1282F2F7081E090E09E
:1024000001C0880F2A95EAF7982F9095932391A3FE
:1024100092A1892B82A378940895CF93DF93CAE980
:10242000D1E089918F3F11F00E94F61181E0CF3900
:10243000D807B9F7CAE8D1E089918F3F11F00E941F
:10244000F61181E0CA39D807B9F7DF91CF91089525
:10245000AF92BF92CF92DF92EF92FF920F931F93B2
:10246000CF93DF938C01B62EC62FD0E0CE018656D7
:102470009E4F7C01FC0120812F3F09F453C0F8944A
:10248000E22FE295EF70F0E031A12F7081E090E053
:1024900001C0880F2A95EAF7932F982B91A392A158
:1024A0008095892382A378940E94F211EAE8F1E0F2
:1024B00030E020E0D12CC12C41E050E081918F3FF1
:1024C000E1F1A82FA295AF70B0E090966C9170E00A
:1024D0008F7002C0759567958A95E2F760FD2DC0F3
:1024E000CA01022E02C0880F991F0A94E2F7C82A77
:1024F000D92A2F5F3F4F2031310501F7F701808145
:102500008F3F11F00E94F61161E0C114D10409F46B
:1025100060E08B2D0E94F411CC0FDD1FC00FD11F86
:10252000D982C882DF91CF911F910F91FF90EF90D8
:10253000DF90CF90BF90AF90089590E080E0D7CF2C
:102540000E940D12A0ECB2E011961C921E92EAECD1
:10255000F2E01182108213961C921E92129713823F
:10256000128215961C921E92149715821482179649
:102570001C921E9216971782168219961C921E9212
:1025800018971186108685E00E9413130C9455034A
:10259000FF920F931F93CF93DF93CDB7DEB72A97A8
:1025A0000FB6F894DEBF0FBECDBF8E010F5F1F4F79
:1025B0008AE0F80111928A95E9F7F12C6F2DC80194
:1025C0000E942812F394F5E0FF12F8CF4AE050E0A1
:1025D000B80180EC92E00E946128FF24F3940097F8
:1025E00009F4F12C892B41F08AE0F801A0ECB2E06B
:1025F00001900D928A95E1F72F2D45E06AEC72E08B
:1026000080EC92E00E9414130E945B038F2D2A96A7
:102610000FB6F894DEBF0FBECDBFDF91CF911F91F3
:102620000F91FF9008950895FF920F931F93CF93FA
:10263000DF93F82E092F162FD72FC42F222349F00E
:1026400081E0809374020E94AC2090937302809387
:102650007202809174028823A1F08091720290919D
:1026600073020E94C420059760F0EF2DF02FA12F78
:10267000BD2F90E080E0D0E08C179D0744F01092D1
:102680007402DF91CF911F910F91FF9008952191D6
:1026900031912D933D930196EFCF0E9428200E9407
:1026A0008C220E94A5220E94B7220E94CD0EFBCF51
:1026B00080917B0280FF12C06091070185E0689FD6
:1026C000B00111247595679575956795603871050A
:1026D000A8F561157105A1F1862F089581FF09C044
:1026E0006091070185E0689FB00111247595679599
:1026F000EDCF6091070182FD0AC080917A028823A4
:10270000D1F09091060160910701891728F085E0CA
:10271000689FB0011124DACF869FB001112485E0B3
:10272000869F9001879F300D1124692F70E0C901A9
:102730000E94E727CBCF65E070E0CECF8FE708950A
:1027400081E0089580917B0280FF0CC060910301BD
:1027500070E075956795759567956115710549F1F7
:10276000862F089581FF06C06091030170E0759582
:102770006795F3CF6091030182FD0BC090917902C0
:102780009923A1F06091020180910301961738F01E
:10279000682F70E06038710500F38FE70895899F16
:1027A000C001112470E00E94E727F4CF61E070E0DF
:1027B000D7CF81E008958D3E31F40E945813819562
:1027C00080937F0208958E3E19F40E945813F8CF2B
:1027D0008F3E31F40E945813819580937E020895B4
:1027E000803F19F40E945813F8CF893F29F40E94C2
:1027F000A2138093800208958A3F21F40E94A213BD
:102800008195F7CF8B3F31F40E94A213819580937D
:10281000810208958C3F19F40E94A213F8CF9FE023
:10282000980F983070F4815F990B21E030E001C07F
:10283000220F8A95EAF780917D02822B80937D0298
:1028400008958D3F31F480917B02816080937B02FB
:1028500008958E3F21F480917B028260F7CF8F3FF5
:10286000B9F780917B028460F1CF40917E028D3E6A
:1028700059F480917F0287FF0DC010927F024111B1
:102880000BC010927A0208C08E3E81F480917F02C4
:1028900018169CF3442381F080918002909181026C
:1028A000892B09F05AC01092790208958F3E49F49D
:1028B00047FFF0CF10927E0280917F028111ECCF12
:1028C000E0CF803F19F41416ACF3E4CF909180026E
:1028D000893F29F41916F4F610928002DBCF8A3F63
:1028E00019F497FFD7CFF8CF909181028B3F29F44D
:1028F00097FFD0CF10928102CDCF8C3F19F41916DB
:10290000CCF3C8CF9FE0980F983090F4815F990B7B
:1029100021E030E0B90102C0660F771F8A95E2F727
:10292000CB01809590917D02892380937D02B2CF67
:102930008D3F31F480917B028E7F80937B02AACF02
:102940008E3F21F480917B028D7FF7CF8F3F09F07E
:10295000A1CF80917B028B7FF0CF08950E94AC20A5
:102960009C0190917E0280917F02982B21F0309300
:102970007802209377029091800280918102982BB7
:1029800021F030937602209375028CE792E00C944C
:10299000321FEF92FF920F931F93CF93DF9300D0DC
:1029A00000D000D0CDB7DEB786E0ECE7F2E0DE0184
:1029B000119601900D928A95E1F7E0907E02F090D9
:1029C0007F02009180021091810210927E0210928B
:1029D0007F0210928002109281028E2D8F2991F039
:1029E00080917702909178020E94C420AC0190916E
:1029F0007A02992309F43FC08091080184171506D3
:102A000008F447C0802F812B91F08091750290913E
:102A100076020E94C420AC0190917902992309F4B6
:102A200077C0809104018417150608F47FC0809157
:102A30007E0290917F02892B90918002892B909148
:102A40008102892B11F00E94AE1486E0FE013196BE
:102A5000ACE7B2E001900D928A95E1F726960FB6A9
:102A6000F894DEBF0FBECDBFDF91CF911F910F91C4
:102A7000FF90EF900895209109018AE0289F90012E
:102A800011242417350708F0BDCF9F5F90937A0279
:102A900002C09F3FD1F7EE2059F00E9458139FEFDC
:102AA0001E140CF491E0899F802D112480937E02E6
:102AB000FF2059F00E9458139FEF1F140CF491E06F
:102AC000899F802D112480937F0230917E023323D1
:102AD00009F498CF20917F02222309F493CF45EB8C
:102AE0003403C0011124992359F090937E0245EBE1
:102AF000240390011124332339F030937F0282CFD5
:102B000081E080937E02F3CF81E080937F027ACFD1
:102B1000209105018AE0289F900111242417350790
:102B200008F085CF9F5F9093790202C09F3FD1F755
:102B3000002359F00E94A2139FEF10160CF491E0AD
:102B4000899F802D112480938002112359F00E94C7
:102B5000A2139FEF11160CF491E0899F802D112490
:102B60008093810230918002332309F460CF209159
:102B70008102222309F45BCF45EB3403C001112409
:102B8000992359F09093800245EB2403900111247E
:102B9000332339F0309381024ACF81E08093800261
:102BA000F3CF81E08093810242CF86E0ECE7F2E050
:102BB000DF011D928A95E9F710927A02109279024C
:102BC00010927B020895EF92FF920F931F93CF9381
:102BD000DF93EB01E82FD11110C0442321F0F0E086
:102BE000ED5FFC4FE4916E2F7E2F8E2FDF91CF9102
:102BF0001F910F91FF90EF9008950D2F10E0282F57
:102C000030E0442329F02D5F3C4FF901249130E05E
:102C1000F6E0CF9FC0011124EFEFF0E0BF010E946A
:102C2000D327AB018C2F90E0880F991FA5E5A49FB7
:102C3000B001A59F700D1124861B970B982F990F3B
:102C4000980FBF01601B710B629FD001639FB00D95
:102C5000729FB00D11248B2F9D9FB0011124672FFF
:102C60007727EF01C61BD70BBE01629FE001639F70
:102C7000D00D729FD00D11247F01E91AF108E09E5A
:102C8000B001E19E700DF09E700D1124672F772723
:102C9000E61BF70BE29F8001E39F100DF29F100DE2
:102CA0001124E12F722F4230510599F048F441155B
:102CB000510569F04130510581F0EB2F8D2F07C090
:102CC0004430510569F080F046305105B1F76E2F60
:102CD0008DCFE22F7B2F812FFACFE22F7D2FF7CFE1
:102CE000EB2F822F712FF3CF7B2F822FED2FEFCF82
:102CF00041E00C94E31508950C947816CF93DF937C
:102D0000762FE901682F842F0E947C1679836883CF
:102D10008A83DF91CF9108958091D402982F9E7F6E
:102D200029F4817082608093D40208958A34E8F394
:102D300081708864F8CF88E090E00C947628CF9278
:102D4000DF92EF92FF926B017C010E948C16B7011B
:102D5000A60188E090E0FF90EF90DF90CF900C9478
:102D60009428E4EDF2E083E0808311828FEF828388
:102D70008383148260817181828193810C949F1678
:102D80008091D40280FF02C08695089580E0089566
:102D90009091D802933018F49F5F9093D8028823C3
:102DA00051F06091D4027091D5028091D602909139
:102DB000D7020C949F16089581E00C94C816909148
:102DC000D802992319F091509093D802882351F09A
:102DD0006091D4027091D5028091D6029091D70271
:102DE0000C949F16089581E00C94DF1670E00C940B
:102DF000D01C60910E018091D40280FF0AC08091A6
:102E00000D0123E0829FC001112487529D4F0C9435
:102E1000F61680910F019091100123E0829FF0013E
:102E20001124E752FD4F891750F711821082128248
:102E30008F5F3396F8CF9091D40290FF14C0909199
:102E40000F012091100133E0939FF0011124E7520C
:102E5000FD4F921710F00C94F91681836083428322
:102E60009F5F3396F6CF0895CF93DF9300D00F92F4
:102E7000CDB7DEB79091D40290FF0AC09E012F5FBC
:102E80003F4F0E947E164B8169818A810E941B17E9
:102E90000F900F900F90DF91CF910895CF93DF9314
:102EA000EC01EC81F0E0E250FE4F4491E4EDF2E001
:102EB000628181810E9434178C818F5F8C83DF91C6
:102EC000CF910895CF93DF93EC01E4EDF2E04381DD
:102ED00062818C810E9434178C818F5F8C83DF919B
:102EE000CF9108950F931F93CF93DF9300D00F924C
:102EF000CDB7DEB78C018091820281110AC09E019C
:102F00002F5F3F4F4FEF6FEF0E947E168A818093B5
:102F10008202F8016481613069F08091820240E0B0
:102F2000662361F040E0623011F44091820280E05B
:102F300060E004C06091820240E080E00E941B17C4
:102F4000F801848190E0019663E070E00E94E72739
:102F500084830F900F900F90DF91CF911F910F916D
:102F60000895AF92BF92CF92DF92EF92FF920F93AC
:102F70001F93CF93DF9300D00F92CDB7DEB7182FFA
:102F8000F62E042FE22E9091D40290FF29C0E92F53
:102F9000E695AE2FB0E0A156BE4F8C9180938C0287
:102FA0009E7F923059F59E012F5F3F4F812F0E94E7
:102FB0007E164B8169818A810E941B171093D5026E
:102FC000F092D6020093D702EE2051F06091D40225
:102FD0007091D5028091D6029091D7020E949F16DF
:102FE0000F900F900F90DF91CF911F910F91FF9055
:102FF000EF90DF90CF90BF90AF900895823019F49A
:103000000091D702DBCF863019F41091D502D6CFCC
:103010008930D9F3893191F6E9518E2F8170D82EFC
:10302000E695F0E0E250FD4FA590B490C12CBB2492
:1030300060911101C61618F00E94F916BFCF2C2D11
:1030400030E0A29EC001A39E900DB29E900D11246F
:1030500070E00E94D327812FD11013C0860F4091BA
:103060000F01420F532F511D9A01220F331F240FBE
:10307000351F27523D4F402F6F2D0E947E16C3945F
:10308000D7CF861BECCFE4EDF2E09181282F43816E
:10309000628188E0890F0C94B11781E00C94431889
:1030A000E4EDF2E09181282F4381628188EF890F5E
:1030B0000C94B11781E00C945018E4EDF2E06281B9
:1030C00028E0620F08F46FEF282F438181810C9470
:1030D000B11781E00C945D18E4EDF2E0628128E024
:1030E000621B08F460E0282F438181810C94B117A2
:1030F00081E00C946C18E4EDF2E0438128E0420F8B
:1031000008F44FEF282F628181810C94B11781E080
:103110000C947B18E4EDF2E0438128E0421B08F4B4
:1031200040E0282F628181810C94B11781E00C94DA
:103130008A1820E00C94B117EF92FF921F93CF935F
:10314000DF93EC0110E0EE24EA94F12C6091110180
:10315000161770F00E94F9169A818C8190FF27C093
:103160008F5F8C83DF91CF911F91FF90EF90089537
:1031700020910F01422F410F5527551FCA019A0177
:10318000220F331F280F391F27523D4F70E0C70110
:103190000E94E727962F8C814091D7026091D6023A
:1031A000199F800D11240E947E161F5FCFCF815082
:1031B000D8CFBF92CF92DF92EF92FF920F931F93DF
:1031C000CF93DF93FC0182810FEF80FF01E010E0DD
:1031D000809111011817C0F00E94F91680918402A5
:1031E000013009F051C0811102C08091110181505C
:1031F00080938402DF91CF911F910F91FF90EF9008
:10320000DF90CF90BF900895C0910F01C12ED12CB7
:10321000CC0DDD2DD11DCE01880F991FC80FD91FF0
:10322000C752DD4F198218821A8234E0E32EF12C46
:10323000B12C809184028B0D813104F18F70082EA6
:10324000000C990BC816D90691F48091D7028E9D77
:10325000A0018F9D500D1124559547955595479583
:103260009E016091D6028091D5020E947E16B00E1A
:10327000F1E0EF1AF108E9F61F5FAACF87FFDFCF71
:1032800090911101890FDBCF90E0019660911101BF
:1032900070E00E94E727ACCF0F931F93CF93DF938B
:1032A00080910F019091100123E0829FF001112481
:1032B000E752FD4F891740F1C0E0D3E06091110162
:1032C000C61740F10E94F91620910B0180918302EC
:1032D000820F8093830290910C01920F90930C01C6
:1032E000191654F4082E000C990B4091110141500D
:1032F000550B841795071CF0219520930B01DF9146
:10330000CF911F910F9108951182108212828F5FC9
:103310003396D0CF0C2F10E070E0C8010E94E72751
:1033200020910F01820F482F50E020918302022E3E
:10333000000C330B02171307BCF020910C01022E76
:10334000000C330B201731077CF08D9F9001112466
:1033500027523D4F4091D7026091D6028091D5020D
:103360000E947E16CF5FAACFFA01EE0FFF1FE40F77
:10337000F51FE752FD4F118210821282F3CF8F9218
:103380009F92AF92BF92CF92DF92EF92FF920F93F4
:103390001F93CF93DF93EC014C81042F10E0980131
:1033A000D8010E942B289B01AC010E9441284B01AF
:1033B0005C01E0E2F0E0E01BF10BA5E5B0E0AC0160
:1033C0009B010E9441286B017C019F01DF010E944B
:1033D00023289B01AC010E944C289B01AC01280DC5
:1033E000391D4A1D5B1DC701B6010E94FB27F22E45
:1033F000822F90E039E23F1560F143E0249F900175
:10340000112435952795122F109500E085E5E82EBB
:10341000EF1880911101081758F10E94F9169C814C
:1034200081E0992319F0903219F48FEF80930A010B
:1034300080910A01890F8C83DF91CF911F910F91A9
:10344000FF90EF90DF90CF90BF90AF909F908F90C4
:10345000089525E530E0B901681B790B9B01220F27
:10346000331F260F371F37FFCCCF2F5F3F4FC9CFFA
:103470008E2D01FD8F2D20910F01622F600F772778
:10348000771F9B01220F331F260F371F27523D4FF7
:10349000412F6091D6020E947E160F5FBACF0F9324
:1034A0001F93CF93DF93EC0110E000E090911101A6
:1034B0009017110609F06CF40E94F9168C8190E0C7
:1034C0000196817099278C83DF91CF911F910F9185
:1034D000089520910F01A801420F511D9A01220F5A
:1034E000331F240F351F27523D4F4C816091D60268
:1034F0008091D50296959017110651F04CF0442317
:1035000049F04091D7020E947E160F5F1F4FCECF29
:103510004423B9F340E0F7CFE4EDF2E080818E7F01
:10352000808360817181828193810E949F161092B5
:103530008D022FEF80E792E0215080409040E1F72C
:1035400000C000000C94F9166091D402669570E0FA
:103550004BE050E082E191E00E945428892B19F45D
:1035600081E080938D020E94AC209093860280932C
:10357000850208959091D40290FF35C09170811119
:1035800028C092609093D402662351F06091D402D7
:103590007091D5028091D6029091D7020E949F1619
:1035A0006091D402669570E04BE050E082E191E0DA
:1035B0000E945428892BA1F010928D0281E0809303
:1035C00088024091D7026091D6028091D5020C9476
:1035D0009918853210F09864D5CF880F982BD2CFE8
:1035E0000E94A41AEBCF0895682F9091D40296956B
:1035F00081E0890F853208F081E00C94BA1A81E0ED
:103600000C94F41A682F9091D40296958FEF890F3D
:1036100009F484E20C94BA1A81E00C94021B61E074
:103620000C94BA1AE4EDF2E0808181608083869583
:103630000C940F1B8091D40280FD0C948C1A0C9476
:10364000121B60E00C94BA1A80918B0281112EC07B
:103650000E94F00D811104C00E94950E0E94B116C7
:103660000E949B166093D4027093D5028093D60279
:103670009093D7026E7F61F40E94B1160E949B1650
:103680006093D4027093D5028093D6029093D702B0
:103690000E948C1610928D028091D40280FF03C08C
:1036A00086950E94211B81E080938B0208950F93E1
:1036B0001F93CF93DF9380918D02882309F486C0F6
:1036C00080918C02E091D402E695E81BE09387029A
:1036D000823091F5F0E0E650FE4FE491CE2FD0E03D
:1036E0000EE417E180918802882361F0109288022D
:1036F0000E94AC20909386028093850210928A02E9
:10370000109289020E94AC20E0918502F09186021D
:103710008E1B9F0B8F3F9F4708F058C0EC0FFD1F7B
:10372000F0938602E093850285E892E0F801DF914C
:10373000CF911F910F910994863049F4F0E0E95040
:10374000FE4FE491CE2FD0E002E617E1CBCF8930D7
:1037500051F4E695F0E0EC50FE4FE491CE2FD0E02E
:103760000CE918E1BFCF8F3051F4E695F0E0EF504F
:10377000FE4FE491CE2FD0E009ED18E1B3CF8531B3
:1037800049F4F0E0E251FE4FE491CE2FD0E00CE49A
:1037900019E1A8CFC8E2D0E00FEB19E1883109F4B4
:1037A000A1CF833239F4ECEEF1E0C591D49102E778
:1037B00017E198CFC4EFD1E00FE41AE1843209F4A5
:1037C00091CFC0EDD7E00BE716E18CCFDF91CF9121
:1037D0001F910F910895FA01811101C0FB01099415
:1037E000CF93DF93C82FD62F0E94C0168C1740F0BE
:1037F0000E94C0168D1720F4DF91CF910C94FF1A10
:103800008C2FDF91CF910C940F1B1F93CF93DF93DD
:10381000EC01FB011281112309F4C0C00E942D0D9F
:103820008272CD3CFCE5DF0709F49CC008F044C07F
:10383000C73CECE5DE0709F481C0F0F4C43C9CE52C
:10384000D90709F471C048F4C33CDC4509F469C0E8
:10385000812FDF91CF911F910895C53C9CE5D90739
:1038600009F467C04AE558E16DE478E1C63CDC45FF
:1038700079F70E94EB1B53C0CA3CFCE5DF0709F453
:1038800067C068F4C83CECE5DE0709F45CC049E6B3
:1038900058E168E778E1C93CDC4559F3D9CFCB3C26
:1038A0009CE5D90709F459C043EF56E16CED76E188
:1038B000CC3CDC45F1F2CCCFC23DFCE5DF0709F49E
:1038C00062C098F4CF3C9CE5D90709F454C008F4D1
:1038D0004EC0C03DFCE5DF0709F452C0C13DDC45E8
:1038E00009F0B6CF6EE089E048C0C53D9CE5D90738
:1038F00009F44FC058F4C33DFCE5DF0709F446C0A6
:10390000C43DDC4509F0A4CF88E132C0C63D9CE54A
:10391000D90709F441C0CE35DD4509F099CF10E053
:1039200097CF0E941A1BFBCF4CE05BE16FEF7AE16F
:10393000A0CF4FEF5AE16CE07BE19BCF4DE458E123
:103940006AE578E196CF48E758E169E678E191CFFA
:1039500046E958E167E878E18CCF47E858E166E945
:1039600078E187CF4CED56E163EF76E182CF81E0DD
:103970000E940F1BD4CF65E082E00E94F01BCFCFE6
:1039800068E086E0FACF64E18FE0F7CF67E185E198
:10399000F4CF62E289E1F1CF83E2EACF11E058CFC0
:1039A0006E9A4EB14F7B5EB15064EFB7F8949B01B5
:1039B000220F331F260F371F280F391F28173907EB
:1039C00041F4EFBF8FE594E00197F1F700C00000EC
:1039D0000895DC016D91CD0178E05EB9000000C072
:1039E00067FF4EB9660F000000C000C000C04EB9AE
:1039F00000C07A9591F7E2CF0F931F93CF93DF9397
:103A0000C42FD22FFC0182818823C9F040939002F9
:103A10000E94AC2090938F0280938E0280E28C0FE4
:103A2000883008F050C0C77081E001C0880FCA9587
:103A3000EAF7DF91CF911F910F910C941E05109121
:103A40009002141335C080918E0290918F020E94D3
:103A5000C420883C910560F5C0E2CD0F1D17B9F078
:103A600080E2810F883040F4177081E001C0880F38
:103A70001A95EAF70E942505C83048F481E09D2F89
:103A8000977001C0880F9A95EAF70E941E05802F53
:103A90000E941605C830B8F4D77081E001C0880FC5
:103AA000DA95EAF7DF91CF911F910F910C942505DC
:103AB00080E28C0F883038F4C77081E001C0880F35
:103AC000CA95EAF7EFCFDF91CF911F910F9108953B
:103AD0000F939C01CB01243F4CE5340759F1A8F426
:103AE000293DFCE53F0701F12A3D4CE53407D1F1C2
:103AF000283D3C4591F406E221EE41EE68ED7CE57F
:103B00000E94FC1C80E00F910895263FFCE53F07D2
:103B1000E9F0B0F0273F3C45F9F0FC0182818823B1
:103B200039F110929002EFCF07E225EE45EE69EDF4
:103B30007CE5E6CF06E221EE40EE64EF7CE5E0CFE7
:103B400007E225EE44EE65EF7CE5DACF06E221EEF2
:103B500042EE66EF7CE5D4CF07E225EE46EE67EF56
:103B60007CE5CECF08E221E045EE6AED7CE5C8CFEA
:103B700081E0C9CFCF93DF93EC01FB0182818823E1
:103B800009F419C1C230FCE5DF07C0F1C6319CE57C
:103B9000D90730F09E012B5F3C452930310570F587
:103BA0000E94030E9093BF028093BE02C031ECE5E9
:103BB000DE0709F4CFC008F05BC0C8308CE5D80739
:103BC00009F4B6C088F5C430ECE5DE0709F4A8C0F6
:103BD000C0F4C2308CE5D80709F49CC08091BE02C5
:103BE0008260C330DC4509F498C08091BE02909198
:103BF000BF020E94110E0E94970780E0DF91CF91D3
:103C000008958091BE028061C630ECE5DE0709F4BC
:103C100084C08091BE028860C730DC4508F47DC056
:103C20008091BE02806279C0CC308CE5D80709F45F
:103C300089C070F48091BE028C60CA30ECE5DE076A
:103C400009F46BC008F478C08091BE028E7F65C015
:103C5000CE308CE5D80709F479C08091BE028B7F05
:103C6000CF30DC4508F459C08091BE028F7E55C02C
:103C7000CC3FECE5DE0709F457C030F5C3318CE5E5
:103C8000D80709F46FC078F4C131ECE5DE0709F418
:103C900065C0C231DC4509F0A8CF0E94970780912A
:103CA000BE028F773AC0C5318CE5D80709F462C0EF
:103CB00008F476C08091BF028160CB3FDC4509F0FB
:103CC00094CF8093BF0291CFC115FDE5DF0709F4C2
:103CD0004DC088F48091BF028D7FCE3F9CE5D9070F
:103CE00081F38091BF028E7FCF3FDC4550F38091FE
:103CF000BF028360E6CFC230FDE5DF0709F459C09B
:103D000008F444C080E0C330DD4509F06ECF0E9466
:103D1000970E6BCF8091BE0281608093BE0265CF0B
:103D20008091BE028460F9CF8091BF028260C9CFCA
:103D30008091BE028064F1CF0E9497078091BE02FD
:103D40008068EBCF8091BE028D7FE7CF8091BE026D
:103D5000877FE3CF8091BE028F7DDFCF8091BE024F
:103D60008F7BDBCF8091BE02837FD7CF8091BF0254
:103D70008C7FA7CF8091BE0282FB992790F921E02A
:103D8000922790FB82F990FB83F9C7CF8091BF0205
:103D9000982F909591708E7F892B90FB81F991CF10
:103DA0000E9497079091BE02892F97FB87F9805850
:103DB000B4CF81E0ACCF81E021CFCF93DF93EB0193
:103DC00086319C4511F50E942D0D9A81992399F019
:103DD0008A7A91E009F490E090939102811109C0F0
:103DE00089E20E94E70C0E947D0D80E0DF91CF9177
:103DF000089585E3F6CF80919102811104C089E294
:103E00000E94EE0CF0CF85E3FBCF81E0EFCF9093E3
:103E10009702809396020895E0919602F09197029E
:103E2000309721F00190F081E02D099480E0089511
:103E3000E0919602F0919702309799F02091270136
:103E4000222359F02091BE0227FF07C0DC012C91EC
:103E500011962C93119725E02C930280F381E02D8D
:103E600009940895E0919602F0919702309739F005
:103E700022E0DC012C930480F581E02D0994089563
:103E800020919402309195022817390771F0909390
:103E9000950280939402E0919602F09197023097F8
:103EA00021F00680F781E02D099408952091920277
:103EB000309193022817390771F090939302809301
:103EC0009202E0919602F0919702309721F00084DF
:103ED000F185E02D09940895FC0132968091270127
:103EE000882321F08091BE029EE187FF96E080E06A
:103EF000915008F4089521912223D1F38F5FF8CFD8
:103F0000662301F1209127012223F1F02091BE02C6
:103F100027FF1AC0462F4695469546954E3190F498
:103F2000677021E030E002C0220F331F6A95E2F78C
:103F3000840F911DFC01828190E02823392381E0C8
:103F4000232B69F480E00895FC01329608962191B4
:103F5000261721F0E817F907D1F7F4CF81E008958B
:103F60009C01FC0132969FEF80E04191461751F091
:103F70009F3F19F4411101C0982F8F5F8630A9F738
:103F80009F3F09F40895290F311D97FD3A95F901D6
:103F900062830895FC01329608962191261303C08E
:103FA000DF0111971C92E817F907B9F70895E62F7A
:103FB000E695E695E695EE3168F4E80FF92FF11DE8
:103FC000677021E030E001C0220F6A95EAF7828134
:103FD000822B82830895E62FE695E695E695EE31ED
:103FE00070F4E80FF92FF11D677021E030E001C097
:103FF000220F6A95EAF7209582812823228308956B
:1040000020912701222329F02091BE0227FD0C9444
:10401000D71F0C94B01F20912701222329F0209153
:10402000BE0227FD0C94EB1F0C94CA1FFC013296B4
:1040300080912701882351F08091BE0287FF06C03E
:104040008EE1DF011D928A95E9F7089586E0F9CFA8
:104050000895089508950C942A20809111038430C6
:1040600049F10E942B2080E00E94CC03109298021C
:1040700088E190E020E40FB6F894A8958093600062
:104080000FBE2093600083B7817F846083BF83B7B6
:10409000816083BF7894889583B78E7F83BF0FB686
:1040A000F894A895809160008861809360001092D8
:1040B00060000FBE08950895CF930E9429200E94AA
:1040C000C8120E945B20C0E08C2F0E94E411892B53
:1040D00031F4CF5FC530C1F780E0CF91089581E022
:1040E000FCCF08950C9471200E9497070E940C1F2A
:1040F0000E94CC030C9472201F921FB61F921124B1
:104100008F939F93AF93BF9380919802811113C0B7
:104110008091090390910A03A0910B03B0910C03C5
:104120004196A11DB11D8093090390930A03A093AA
:104130000B03B0930C03BF91AF919F918F911F9090
:104140001FBE1F90189582E084BD93E095BD9AEF45
:1041500097BD80936E0008952FB7F894809109035E
:1041600090910A03A0910B03B0910C032FBF089507
:104170002FB7F8946091090370910A0380910B03A3
:1041800090910C032FBF08959C014FB7F894809134
:10419000090390910A03A0910B03B0910C034FBF48
:1041A000821B930B089578941F921FB61F921124BF
:1041B0008F939F93AF93BF938091090390910A03CC
:1041C000A0910B03B0910C030196A11DB11D80932A
:1041D000090390930A03A0930B03B0930C03BF91C0
:1041E000AF919F918F911F901FBE1F90189581E0F6
:1041F0008093E00080E28093D8001092C9008FE1A4
:104200009EE40197F1F700C0000087E090EBDC012D
:1042100080931A0390931B03A0931C03B0931D0378
:1042200088E19CE00FB6F894A895809360000FBEDB
:1042300090936000FFCF9093C5018093C4010895CF
:104240008091BC02089590911103943031F58093D0
:10425000990270939B0260939A0282E08093E90036
:104260008FEF9091E800815095FD06C095ED9A95ED
:10427000F1F700008111F5CF8091E80085FF0DC0B6
:1042800050E040E063E070E089E992E00E94422360
:104290008091E8008E778093E8000895BC0184E067
:1042A0000C942321BC0183E00C9423219C0182E027
:1042B0008093E9009FEF8091E800915085FD06C052
:1042C00085ED8A95F1F700009111F5CF8091E80016
:1042D00085FF0CC050E040E066E070E0C9010E943C
:1042E00042238091E8008E778093E8000895CF9371
:1042F000DF93EC01809127018823B1F18091BE0208
:1043000087FF32C060E282E08093E9008FEF9091F6
:10431000E800815095FD06C095ED9A95F1F70000F3
:104320008111F5CF8091E80085FF1BC080912701A6
:1043300070E050E040E0811104C050E040E068E0EF
:1043400070E0CE010E9442238091E8008E77809336
:10435000E80080E2FE01ACE9B2E001900D928A959E
:10436000E1F7DF91CF91089568E081E0CDCF8091B2
:104370001003811109C00E94D2240E942F25809130
:10438000E20084608093E200089510921003089583
:1043900008950895089542E061EC81E00E944E2462
:1043A00042E261EC82E00C944E248091130383304E
:1043B00009F45FC030F48130C1F1823009F49BC050
:1043C00008958A3009F487C08B3009F46DC08930B4
:1043D00009F04EC080911203813209F049C08091EA
:1043E000160390911703029708F042C08091E800ED
:1043F000877F8093E8008091E80082FF35C090912C
:10440000F3008091F200029729F48091F1008B7FF4
:10441000813021F48091F1008093BC028091E8000A
:104420008B778093E8000C94822480911203813A68
:10443000F9F48091E800877F8093E800809116036B
:1044400090911703892B61F460E28CE992E070E0AF
:104450000E9491238091E8008B778093E800089573
:1044600060E090E080E0F3CF809111038111C3CF31
:10447000089580911203813AD9F7809116039091A3
:104480001703892BA9F78091E800877F8093E800C4
:104490008091E80080FFFCCF809127018093F1009C
:1044A0008091E8008E77BDCF80911203813201F7B1
:1044B0008091160390911703892BD1F68091E80023
:1044C000877F8093E8000E94822480911403809368
:1044D00027010C94970780911203813249F680914D
:1044E000E800877F8093E8000E9482248091150372
:1044F0008093BD02089580911203813A09F0B8CFEC
:104500008091E800877F8093E8008091E80080FF39
:10451000FCCF8091BD02C2CF84B7877F84BF0FB626
:10452000F894A89580916000886180936000109253
:1045300060000FBE80E890E00FB6F89480936100B1
:10454000909361000FBE0C94BD0E0E94D2240E9475
:104550002F25E2EEF0E080818460808378940E94D1
:10456000B8270E94D10E8DE191E00C94071F809135
:104570001103853031F480911103853021F00E94C0
:1045800074200C94D90E0E942D2080910F03882353
:1045900091F30E945C20882371F30E942C230E94D7
:1045A0009707E9CF0C94D422292F332723303105E4
:1045B00019F168F42130310509F444C02230310585
:1045C00009F445C090E080E030E020E025C02132D1
:1045D000310549F122323105A9F780E490E02EE25D
:1045E00035E061157105C1F086EB90E028E734E015
:1045F0006130710589F0E6CF99278130910581F00E
:10460000009729F00297F1F6E3E0F4E002C0E7E258
:10461000F4E0849190E09F01FA01318320830895B2
:10462000EFE0F4E0F6CF89E090E02DE334E06115AF
:10463000710591F389E090E026E534E06130710581
:1046400059F3C0CF82E190E026E634E0E5CF8BE37A
:1046500090E02BE234E0E0CF80E189BD82E189BDCA
:1046600009B400FEFDCF8091D8008F7D8093D800E3
:104670008091E00082608093E0008091E00081FD05
:10468000FCCF0895AF92BF92CF92DF92FF920F932B
:104690001F93CF93DF936C01EB018A010E94A12449
:1046A000F82E811123C00115110539F0F801808120
:1046B0009181C81BD90BC80ED91EB12CA12C2097F3
:1046C000A9F08091E80085FD22C08091E8008E77F6
:1046D0008093E80001151105A1F0F8018081918116
:1046E000A80EB91EB182A08285E0F82E8F2DDF9131
:1046F000CF911F910F91FF90DF90CF90BF90AF901F
:1047000008950E94A1248823D1F2F82EEFCFF6015C
:1047100081916F018093F1002197FFEFAF1ABF0ADB
:10472000CECFFC018091180390911903861797074B
:10473000A0F06115710529F49091E8009E7790939F
:10474000E80090E06115710551F4911108C0809165
:10475000E80082FF34C080E00895BC01F2CF809170
:1047600011038823C1F18530C1F18091E80083FDF8
:1047700030C08091E80082FDEACF8091E80080FFA0
:10478000E1CF8091F3002091F200382F611571057F
:1047900019F02830310558F091E02830310509F042
:1047A00090E02091E8002E772093E800CBCF819114
:1047B0008093F100615071092F5F3F4FE7CF8091E7
:1047C0001103882341F0853041F08091E80083FF98
:1047D000BECF81E0089582E0089583E00895FC0152
:1047E000809118039091190386179707A0F061151F
:1047F000710529F48091E8008E778093E80090E0BD
:104800006115710551F4911108C08091E80082FF93
:1048100035C080E00895BC01F2CF80911103882358
:10482000C9F18530C9F18091E80083FD31C08091E4
:10483000E80082FDEACF8091E80080FFE1CF80911F
:10484000F3002091F200382F6115710519F028301E
:10485000310558F091E02830310509F090E0809161
:10486000E8008E778093E800CBCF84918093F100AD
:104870003196615071092F5F3F4FE6CF8091110350
:10488000882341F0853041F08091E80083FFBDCF5F
:1048900081E0089582E0089583E00895982F97308D
:1048A00028F08F708093E90081E008959093E900EB
:1048B000242F762F50E0981731F07091EC00209162
:1048C000ED005091F00021FD02C09F5FE8CF3091D4
:1048D000EB003E7F3093EB003091ED003D7F309355
:1048E000ED003091EB0031603093EB007093EC0001
:1048F0002093ED005093F0002091EE0027FDE5CFCE
:1049000080E008958091120387FF13C08091E80032
:1049100082FF06C08091E8008B778093E80004C096
:10492000809111038111F2CF0895809111038823A2
:10493000D9F38091E80080FFF8CF8091E8008E776E
:10494000ECCF2091E4003091E50095E6A90120919B
:10495000EC00822F817020FF06C08091E80080FF6C
:1049600006C080E008952091E80022FD1AC08091E1
:104970001103882389F0853089F08091EB0085FD53
:104980000FC02091E4003091E50042175307F9F27F
:104990009150E1F684E0089582E0089583E008955F
:1049A00081E008950E9440250E944825E0EEF0E055
:1049B000808181608083E8EDF0E080818F77808363
:1049C00019BCA7EDB0E08C918E7F8C9380818F7E97
:1049D00080831092100308950F931F93CF93DF935A
:1049E0000E9440250E944825C8EDD0E088818F773D
:1049F000888388818068888388818F7D888319BCBB
:104A00001092110310920D0310920F0310920E03D7
:104A100000EE10E0F80180818B7F808388818160C7
:104A2000888342E060E080E00E944E24E1EEF0E006
:104A300080818E7F8083E2EEF0E0808181608083E0
:104A4000808188608083F80180818E7F8083888167
:104A500080618883DF91CF911F910F910895E8EDD8
:104A6000F0E080818F7E8083E7EDF0E080818160DF
:104A7000808384E082BF81E0809310030C94EC2457
:104A8000E8EDF0E080818E7F80831092E20008954F
:104A90001092DA001092E10008951F920F920FB663
:104AA0000F9211242F933F934F935F936F937F93B4
:104AB0008F939F93AF93BF93EF93FF938091E10008
:104AC00082FF0BC08091E20082FF07C08091E1006D
:104AD0008B7F8093E1000E94B7278091DA0080FFEE
:104AE00019C08091D80080FF15C08091DA008E7FB8
:104AF0008093DA008091D90080FF96C080E189BD63
:104B000082E189BD09B400FEFDCF81E080931103ED
:104B10000E94B7218091E10080FF19C08091E200DE
:104B200080FF15C08091E2008E7F8093E20080912B
:104B3000E20080618093E2008091D80080628093DF
:104B4000D80019BC85E0809311030E94C92180918F
:104B5000E10084FF2BC08091E20084FF27C080E148
:104B600089BD82E189BD89B5982F917080FFFBCF07
:104B70008091D8008F7D8093D8008091E1008F7E56
:104B80008093E1008091E2008F7E8093E20080912B
:104B9000E20081608093E20080910D03882309F494
:104BA00049C084E0809311030E94CA218091E100F2
:104BB00083FF29C08091E20083FF25C08091E1003E
:104BC000877F8093E10082E08093110310920D03B0
:104BD0008091E1008E7F8093E1008091E2008E7FE2
:104BE0008093E2008091E20080618093E20042E0E5
:104BF00060E080E00E944E248091F0008860809305
:104C0000F0000E94C821FF91EF91BF91AF919F9159
:104C10008F917F916F915F914F913F912F910F9065
:104C20000FBE0F901F90189519BC109211030E948F
:104C3000C52170CF8091E30087FD93E0909311032D
:104C4000B3CF1F920F920FB60F9211242F933F9361
:104C50004F935F936F937F938F939F93AF93BF9384
:104C6000CF93DF93EF93FF93D091E900DF708091B2
:104C7000EC00C82FC17080FDC0E81092E90080915F
:104C8000F000877F8093F00078940E946526109250
:104C9000E9008091F00088608093F000CD2BCF7008
:104CA000C093E900FF91EF91DF91CF91BF91AF9158
:104CB0009F918F917F916F915F914F913F912F9134
:104CC0000F900FBE0F901F9018951F93CF93DF93F7
:104CD000CDB7DEB7AA970FB6F894DEBF0FBECDBF33
:104CE00082E193E02091F100FC012193CF01F3E0F8
:104CF0008A319F07B9F70E94D5218091E80083FF90
:104D00001EC180911203909113039A3008F017C1CD
:104D1000E92FF0E0EA52F74D0C941D28803899F005
:104D2000823809F00CC1809116038F70873008F02B
:104D300006C18093E9008091EB0085FB882780F90C
:104D40001092E90006C080910E0390910F0391111B
:104D500082609091E800977F9093E8008093F10043
:104D60001092F1008091E8008E77E5C0882309F465
:104D7000D3C0823009F0E3C0809114038111D6C002
:104D8000809116038F702FEF280F263008F0D7C0C0
:104D90008093E9002091EB0020FFC8C0933031F4EC
:104DA0008091EB0080628093EB00C0C09091EB009B
:104DB00090619093EB0021E030E001C0220F8A95D2
:104DC000EAF72093EA001092EA008091EB008860F5
:104DD000EACF8111B4C0109114031F778091E300D2
:104DE0008078812B8093E3008091E800877F809317
:104DF000E8000E9482248091E80080FFFCCF80912F
:104E0000E30080688093E30082E0111183E08093E7
:104E1000110395C08058823008F091C0809114032E
:104E2000909115038C3D23E09207A1F583E08A83DE
:104E30008AE289834FB7F894DE01139620E03EE0C2
:104E400051E2E32FF0E050935700E49120FF03C0BC
:104E5000E295EF703F5FEF708E2F90E0EA30C0F088
:104E6000C7968D939D932F5F243159F74FBF809143
:104E7000E800877F8093E8006AE270E0CE01019647
:104E80000E9491238091E8008B778093E80057C0BF
:104E9000C096E7CF6091160370911703AE014F5F84
:104EA0005F4F0E94D222BC01892B09F448C0909127
:104EB000E800977F9093E80089819A810E94EF2310
:104EC000E1CF8038E1F58091E800877F8093E800AA
:104ED00080910D038093F10045CF811130C09091F6
:104EE0001403923060F58091E800877F8093E8009A
:104EF00090930D030E94822480910D03882311F06A
:104F000084E005C08091E30087FDFACF81E08093C3
:104F100011030E94CB2113C080911403813079F4D6
:104F200081E0933009F080E080930F031092E90054
:104F30008091E800877F8093E8000E94822480911E
:104F4000E80083FF0AC08091E800877F8093E80033
:104F50008091EB0080628093EB00AA960FB6F894E4
:104F6000DEBF0FBECDBFDF91CF911F910895089591
:104F7000CF93809111038823A1F0C091E900CF70F5
:104F80009091EC00892F817090FD80E8C82B1092E1
:104F9000E9008091E80083FD0E946526CF70C093F0
:104FA000E900CF910895AA1BBB1B51E107C0AA1FBE
:104FB000BB1FA617B70710F0A61BB70B881F991FBA
:104FC0005A95A9F780959095BC01CD01089597FB5E
:104FD000072E16F4009407D077FD09D00E94D3273E
:104FE00007FC05D03EF4909581959F4F08957095EC
:104FF00061957F4F0895A1E21A2EAA1BBB1BFD01EC
:105000000DC0AA1FBB1FEE1FFF1FA217B307E407A7
:10501000F50720F0A21BB30BE40BF50B661F771FFF
:10502000881F991F1A9469F76095709580959095DF
:105030009B01AC01BD01CF010895EE0FFF1F05904C
:10504000F491E02D09940E942B28332312F48A1B3B
:105050009B0B0C943C28A29FB001B39FC001A39F5F
:10506000700D811D1124911DB29F700D811D1124A1
:10507000911D08950E942B28B7FF0895821B930B62
:1050800008950E942B28A59F900DB49F900DA49F7A
:10509000800D911D11240895B7FF0C9441280E94A2
:1050A0004128821B930B0895FC014150504030F081
:1050B00001900616D1F73197CF01089588279927D7
:1050C0000895FB01DC0104C08D910190801921F449
:1050D00041505040C8F7881B990B0895F999FECFAD
:1050E00092BD81BDF89A992780B50895A6E1B0E0F8
:1050F00044E050E00C94A828A8E1B0E042E050E081
:105100000C94A828262FF999FECF92BD81BDF89A5C
:10511000019700B4021639F01FBA20BD0FB6F894FB
:10512000FA9AF99A0FBE08950396272F0E948328B2
:105130000E948228252F0E948328242F0C948328E4
:105140000196272F0E9483280C948228DC01CB0132
:10515000FC01F999FECF06C0F2BDE1BDF89A319687
:1051600000B40D9241505040B8F70895F894FFCF25
:1051700060056005B805B8050A0626068D058D058B
:105180003106BD06CC06CC0628078D058D053107F6
:10519000A607A607AF07AF07B107AF07AF07AF076F
:1051A000A607A607B607AF07AF07B6078E26B6262F
:1051B0009F27B6269F27E9260A279F2761276D2765
:1051C0003B022808641E140A321E0101020010006E
:1051D000101001191A1B1C1D1E1F202122202177CF
:1051E00021562152214E2101E200E900EA00B500DA
:1051F000B600B700CD008301CC008A019201940172
:105200002102230224022502260227022A02B300D9
:10521000B4006F007000818283E200E900EA00B50B
:1052200000B600B700CD008301CC008A0192019442
:10523000012102230224022502260227022A02B3A8
:1052400000B4006F007000818283F7F6F5F4F1F08E
:1052500030949697343536336667929391959000E3
:1052600001020202020606060909090909090F0FCF
:105270000F0F0F0F151515181919191919191919D3
:0452800019192324B1
:00000001FF
