:100000000C9430030C9477030C9477030C947703CF
:100010000C9477030C9477030C9477030C94770378
:100020000C9477030C9477030C94FA290C94CE2A41
:100030000C946D240C9477030C9477030C94770341
:100040000C9477030C9477030C9477030C94770348
:100050000C9477030C94C4240C9477030C947703CA
:100060000C9477030C9477030C9477030C94770328
:100070000C9477030C9477030C9477030C94770318
:100080000C9477030C9477030C9477030C94770308
:100090000C9477030C9477030C9477030C947703F8
:1000A0000C9477030C9477030C94770329001E00BB
:1000B0001F0020002100220023002400250026002C
:1000C00027002D002E00350000004A002B001400F0
:1000D0001A0008001500170000001C0018000C0092
:1000E000120013002F0030002A004D0039000400D8
:1000F0001600070009000A0000000B000D000E00AA
:100100000F0033003400000028004C00E1001D0007
:100110001B00060019000500000011001000360049
:1001200037003800E500000052000000E000000049
:10013000E20000002C00015100002C000000E20051
:10014000000000005000000051004F0001000100BD
:100150000100010001000100010001000100010097
:10016000010001000100010000004B00010001003E
:10017000010001000100010000005F00600061005B
:10018000C65CC55CC35CC25C01004E00010001009E
:10019000010001000100010000005C005D005E0044
:1001A000CA5CC75CC85C0000010049000100010096
:1001B0000100010001000100000059005A005B002D
:1001C000010001000100000001000000010000002A
:1001D00001000000010001000000620000000100B9
:1001E000000000000100000001000100000000000C
:1001F000000000002A2B2800000000000000000082
:100200000000000000000029000000002C1E342027
:10021000212224342627252E362D3738271E1F204D
:100220002122232425263333362E37381F04050692
:100230000708090A0B0C0D0E0F10111213141516D6
:100240001718191A1B1C1D2F3130232D35040506D4
:100250000708090A0B0C0D0E0F10111213141516B6
:100260001718191A1B1C1D2F3130354C00000000C7
:10027000000000000000000000000000000000007E
:10028000000000000000000000000000000000006E
:100290007E0F00D4FFFFFFC70000007800047F3FFF
:1002A0001F643214643214783C1E1E140A05222383
:1002B000252628292A2C2D2F3032333536383A3B43
:1002C0003D3E4042434547494A4C4E505153555795
:1002D000595A5C5E6062646668696B6D6F717375B4
:1002E00077797B7D7F81838587898A8C8E909294B4
:1002F00096989A9C9E9FA1A3A5A7A8AAACAEAFB1C1
:10030000B3B4B6B8B9BBBCBEBFC1C2C3C5C6C7C90A
:10031000CACBCCCDCED0D1D2D2D3D4D5D6D7D7D8C4
:10032000D9D9DADADBDBDBDCDCDCDCDCDDDDDDDD16
:10033000DCDCDCDCDCDBDBDBDADAD9D9D8D7D7D61E
:10034000D5D4D3D2D2D1D0CECDCCCBCAC9C7C6C5D5
:10035000C3C2C1BFBEBCBBB9B8B6B4B3B1AFAEAC1B
:10036000AAA8A7A5A3A19F9E9C9A98969492908EC6
:100370008C8A89878583817F7D7B79777573716F9F
:100380006D6B6968666462605E5C5A59575553517B
:10039000504E4C4A4947454342403E3D3B3A383631
:1003A000353332302F2D2C2A292826252322FFAA47
:1003B0007F5540000101010101010101010202021A
:1003C0000202020202020303030303030303040401
:1003D00004040404040505050505060606060607CB
:1003E0000707070708080808090909090A0A0A0B84
:1003F0000B0B0C0C0C0D0D0D0E0E0E0F0F0F101025
:1004000011111112121313141415151616171718AB
:100410001819191A1A1B1B1C1D1D1E1E1F20202116
:100420002222232424252626272829292A2B2C2D5D
:100430002D2E2F30313232333435363738393A3B7E
:100440003C3D3E3F404142434445464748494A4C73
:100450004D4E4F50515354555658595A5B5D5E5F3F
:10046000616264656668696B6C6D6F7072737577D5
:10047000787A7B7D7E8082838587888A8C8E8F9137
:10048000939596989A9C9EA0A2A3A5A7A9ABADAF61
:10049000B1B3B5B7BABCBEC0C2C4C6C9CBCDCFD14B
:1004A000D4D6D8DBDDDFE2E4E7E9EBEEF0F3F5F8F4
:1004B000FAFDFF0A034D004F004E00310000001608
:1004C0000371006D006B006200750069006C0064D0
:1004D000006500720000000403090409025B0003C8
:1004E0000100A0FA09040000010301010009211123
:1004F0000100012240000705810308000A090401E8
:10050000000203000000092111010001222200075E
:1005100005820320000107050303200001090402EE
:1005200000010300000009211101000122B60007AB
:1005300005840320000A1201000200000008EDFEFD
:1005400060600100010200010660FF0961A101096C
:1005500062150026FF0095207508810209631500C9
:1005600026FF00952075089102C005010902A1012E
:1005700085020901A10005091901290815002501B5
:100580009508750181020501093009311581257F22
:1005900095027508810609381581257F9501750832
:1005A0008106050C0A38021581257F9501750881A1
:1005B00006C0C005010980A101850319012AB70001
:1005C000150126B700950175108100C0050C0901C1
:1005D000A101850419012AA002150126A002950196
:1005E00075108100C005010906A1018505050719DF
:1005F000E029E71500250195087501810205071915
:100600000029EF1500250195F075018102050819F3
:10061000012905950575019102950175039101C0A8
:1006200005010906A101050719E029E715002501C3
:10063000950875018102950175088101050719006A
:1006400029FF150026FF0095067508810005081989
:10065000012905950575019102950175039101C068
:1006600011241FBECFEFDAE0DEBFCDBF04B603FE1C
:1006700027C08091100390911103A0911203B091B3
:1006800013038730904BA740B04BD1F41092100366
:1006900010921103109212031092130314BE84B728
:1006A000877F84BF0FB6F894A89580916000886119
:1006B00080936000109260000FBEE0E0F8E30995BF
:1006C00011E0A0E0B1E0EEE4FBE502C005900D9280
:1006D000A43DB107D9F723E0A4EDB1E001C01D921C
:1006E000A031B207E1F70E94C0130C946A2D0C945C
:1006F00000000895089581E00895089581E0089527
:100700000C947B0308950C9482031F93CF93DF9383
:1007100000D000D00F92CDB7DEB749835A836B83E8
:100720003091D60189819A8131111DC06623B9F0BB
:100730002223A9F00E94E709182F682F89819A8146
:100740000E94940969817A81812F0F900F900F90F8
:100750000F900F90DF91CF911F910C9422200E9457
:10076000C009182FEFCF0E94E70969817A81EDCF88
:10077000FC01262F408151816281738184810C9418
:10078000850381E00895CF93DF93EC0160E00E9440
:10079000B803BE01DF91CF910C948303E1E0F0E058
:1007A000DF0102C0AA0FBB1F6A95E2F7BD01DF019E
:1007B00002C0AA0FBB1F4A95E2F76A2B01C0EE0FD9
:1007C0002A95EAF7962F9823961302C08E2B089548
:1007D000E0958E230895242F462F682F8091F501F0
:1007E0000E94CE030C9451090E9439120E944205C6
:1007F0000C9453120C94551208950E94E9080E941B
:10080000FC032FEF84E39CE0215080409040E1F70F
:1008100000C000000C94E8240F931F93CF93DF9344
:100820008C0161E00E94B803EC01B8010E94081E2F
:10083000882309F441C0B801CE010E9480038823B7
:10084000D9F1B801CE010E9459218823A9F1B8013C
:10085000CE010E94AB21882379F1B801CE010E941C
:10086000CE22882349F1B801CE010E94BA1C882308
:1008700019F1F8018281882361F0CA35FDE5DF07AF
:1008800021F170F4C115ECE5DE07A1F0CE3DDC45A9
:10089000C9F0C801DF91CF911F910F910C947E0395
:1008A000CB358DE5D807A1F0CC35DD4591F70E9419
:1008B000AF0DEFCF0E94FD0380E0DF91CF911F913C
:1008C0000F9108950E94250FF7CF0E94B80DE1CF38
:1008D0000E94BB0DDECFDF92EF92FF920F931F932A
:1008E000CF93DF93E82FF0E0E451FE4FD490282F10
:1008F00026952695269530E0F901E457FD4F0491A1
:10090000877010E0082E02C0159507950A94E2F74B
:1009100001701127F901E458FD4FE490F12C082EE5
:1009200002C0F594E7940A94E2F791E0E922FF24EB
:10093000F901E459FD4FC491D0E002C0D595C795A7
:100940008A95E2F7C170DD270115110519F081EED6
:100950000E948E05E114F10419F086EE0E948E05C6
:100960008D2D0E948D06EF2819F086EE0E9420063C
:10097000012B19F081EE0E942006CD2B51F08CE264
:10098000DF91CF911F910F91FF90EF90DF900C942A
:100990008D06DF91CF911F910F91FF90EF90DF9027
:1009A0000895EF92FF920F931F93CF93DF93EC0183
:1009B000162F0AE08881882309F454C0813009F099
:1009C0004EC08981813099F47E0122E0E20EF11C53
:1009D0008A810E948D06E7012196812F815050F374
:1009E000EFE9FFE03197F1F700C00000F7CF823068
:1009F00041F47E0182E0E80EF11C8A810E948E059E
:100A0000EACF833041F47E01E2E0EE0EF11C8A81F0
:100A10000E942006E0CF843011F02196DDCF2A819C
:100A2000229690E080E0AE014F5F5F4F2053330B82
:100A30002A30310548F0019778F2EFE9FFE031976D
:100A4000F1F700C00000F7CF089FB001099F700DBB
:100A50001124C901860F971F2981EA01E4CF0E9462
:100A60006B04BACFDF91CF911F910F91FF90EF9060
:100A7000089560E00C94D1040C947D0381E0089506
:100A80000C943E050895CF93C82F0E943C058C2FEF
:100A9000CF910C944005CF93DF93CDB7DEB72B9762
:100AA0000FB6F894DEBF0FBECDBF4F83588769875E
:100AB0007A878B8761110E94DE0D1E821D8285E080
:100AC000FE013796DE01119601900D928A95E1F7AD
:100AD0008C819D81892B89F449815A816B817C812C
:100AE0008D819E810E94DE0C2B960FB6F894DEBF9E
:100AF0000FBECDBFDF91CF91089589819A8189235F
:100B00008F3F51F3CE0101960E94C1038111E4CFC2
:100B1000EBCFFC01808191810C94140ACF93C82FF4
:100B2000882309F48BC08238C1F40E94FD2281FD24
:100B300085C089E30E94780D0E940E0E2FEF81EE92
:100B400094E0215080409040E1F700C0000089E32C
:100B50000E947F0DCF910C940E0E8338A1F40E9459
:100B6000FD2280FD6BC083E50E94780D0E940E0E71
:100B70002FEF81EE94E0215080409040E1F700C0DB
:100B8000000083E5E5CF8438A1F40E94FD2282FDB8
:100B900055C087E40E94780D0E940E0E2FEF81EE63
:100BA00094E0215080409040E1F700C0000087E4CD
:100BB000CFCF8CEF8C0F813A90F46C2F8091000195
:100BC000909101010E947123882329F08C2F0E94AB
:100BD0007F0D0E940E0E8C2F0E94780DBBCF80E2FD
:100BE0008C0F883048F4C77081E001C0880FCA9527
:100BF000EAF70E94C10DAECFEBE5EC0FE33040F415
:100C0000F0E0EA5AFE4F808190E0CF910C943123BE
:100C1000E8E5EC0FE73150F4F0E0EE0FFF1FE85D80
:100C2000FE4F80819181CF910C944723C03F30F0DB
:100C30008C2F0E944E14CF910C942115CF910895C2
:100C4000882309F452C0823871F40E94FD2281FF8A
:100C50004CC089E30E94780D0E940E0E89E30E9429
:100C60007F0D0C940E0E833859F40E94FD2280FFF4
:100C70003CC083E50E94780D0E940E0E83E5EFCF05
:100C8000843859F40E94FD2282FF2FC087E40E941D
:100C9000780D0E940E0E87E4E2CF9CEF980F913AF8
:100CA000F0F290E2980F983050F4877091E001C014
:100CB000990F8A95EAF7892F0E94C70DD2CF9BE53D
:100CC000980F933020F490E080E00C94312398E565
:100CD000980F973120F490E080E00C944723803FF8
:100CE00020F00E94A8140C94211508951F93CF930F
:100CF000DF93182FEB010E948E05209731F4812F8E
:100D0000DF91CF911F910C9420068FE99FE001970E
:100D1000F1F700C000002197F0CF70E060E0893368
:100D200011F460E570E00C947606882321F00E94AF
:100D3000C10D0C940E0E0895882321F00E94C70D5A
:100D40000C940E0E0895BF92CF92DF92EF92FF9215
:100D50000F931F93CF93DF936C01D62FC72FFC0106
:100D60001281058102950F700E94960DE82E88234E
:100D7000A1F0E12E112389F08C2F807F803429F09F
:100D800080E28D0FE12C883040F082E00E945F0EFF
:100D90000E94960D91E0E82EE926BC2EB2949FE0C9
:100DA000B922EB2DF0E0E459F24D0C94CA2C0C2F33
:100DB0000F70C07F11F00295007F1123A9F000236E
:100DC00059F080E28D0F883010F0D11109C0802FCA
:100DD0000E94C10D0E940E0E8D2F0E948E0514C020
:100DE000802F0E94D10DF6CF8D2F0E942006002368
:100DF00059F080E28D0F883010F0D1112CC0802F77
:100E00000E94C70D0E940E0E2B2D2850330B24304C
:100E1000310520F40E94FD220E944305EE2009F4D2
:100E200079C10E94920D80FD75C1F60112820E9467
:100E30008C0D0E946209C6010E94AB080E948C0DB5
:100E4000DF91CF911F910F91FF90EF90DF90CF90A6
:100E5000BF900C946D09802F0E94D70DD3CFFC2F2B
:100E6000FF70FF2EC07FC03219F0F29480EFF8229D
:100E7000DD2369F0D13049F1112391F1002351F1C3
:100E8000F601858180FFA8CF8F70858323C0112351
:100E900081F0011106C00E94F10D8F290E94950674
:100EA000B3CF0130C1F70E94F10D8F290E94F70DD9
:100EB000ABCF011106C00E94040E8F2D0E949C062C
:100EC000A3CF013009F4A0CFF6CF112329F00630CB
:100ED00008F09ACF8F2DE2CF053008F095CFEDCFF7
:100EE000002359F3D93349F4FFEF27EE33E0F150F3
:100EF00020403040E1F700C000008D2F0E94200606
:100F000083CF8C2F86958695837069F0813009F0A8
:100F10007BCF8D2F9C2F9370111102C090E080E049
:100F20000E94472371CF8D2F9C2F9370111102C007
:100F300090E080E00E94312367CF8D2F112329F0AC
:100F40000E944E140E9421155FCF0E94A814FACF70
:100F50008C2F837079F5111157CF4D2F42954695FF
:100F60004770440F440F8D2F8F70042E01C0880FDF
:100F70000A94EAF72D2F2071D4FF07C02FE030E04C
:100F800001C0220F4A95EAF72095C695C695C37011
:100F9000822BC23049F058F4C13019F00E94430945
:100FA00033CF0E943E0930CF0E9448092DCF0E94C6
:100FB0003C092ACF8695112311F08C2F817088234C
:100FC00009F422CF4D2F429546954770440F440FA8
:100FD0008D2F8F70042E01C0880F0A94EAF72D2FF1
:100FE0002071D4FF07C02FE030E001C0220F4A95E6
:100FF000EAF72095C695C695C370822BC23049F09A
:1010000058F4C13019F00E948909FECE0E9484096B
:10101000FBCE0E948E09F8CE0E945109F5CECF700A
:10102000112329F08C2F0E9462098D2F37CF8D2F2D
:101030000E949C068C2F0E946D09E6CED23F89F15A
:1010400060F4D03FC9F0D13F29F1112309F442C027
:101050000111C2CE8C2F8F7121C0D33F39F1D43F03
:10106000A1F7112369F1CF718C2F0E94620963E00F
:101070008C2F0E94440EC8CE112341F0053008F099
:10108000C3CE8C2F8F710E947909BECE063008F036
:10109000BBCEF7CF8C2F8F71112369F20E946209AA
:1010A000B3CE8C2F8F711123C9F3C5CF112329F033
:1010B0008C2F8F710E945A09A7CE0E945709A4CE87
:1010C00081E00E945F0E023008F49ECE82E00E9412
:1010D0005F0E9ACE002359F0D93309F00ECF8FEF6F
:1010E00097EEE3E081509040E040E1F704CF8C2F91
:1010F0008F71A1CF4C2F4F706D2FC6010E941F1012
:101100000E94420A81CE4C2F4F706D2FC6010E9463
:1011100022107ACEDF91CF911F910F91FF90EF9027
:10112000DF90CF90BF9008950F931F93CF93DF93DD
:10113000EC01688179818A810E941E0A8C010E94DB
:1011400093090E943B09B801CE01DF91CF911F9115
:101150000F910C94A306CF93DF93EC018B819C81BC
:10116000892B29F08881998189238F3F59F4DF9158
:10117000CF910895CE010E949408CE01DF91CF91C6
:101180000C94C303CE010E940C048111F3CF0E9482
:10119000960D882361F38A81882349F382E0DF91E9
:1011A000CF910C945F0E90E080E00E94312390E09C
:1011B00080E00E9447230E94DE0D0E94EE0D0E94F7
:1011C0000E0E0E9448160C9421150E94860D0C9458
:1011D000D3080E94CE0D0C94E508E92FE295EF703C
:1011E000E250EE3070F4F0E0E458F24D0C94CA2C6A
:1011F000803F19F020F4883E20F481E00895843F78
:10120000E1F380E00895883EC0F3813FD1F7F5CF48
:1012100093FB882780F90895FC01808191810E94C9
:10122000140A0C94ED08CF93DF9300D000D00F92F6
:10123000CDB7DEB70F900F900F900F900F90DF910A
:10124000CF910895CF93DF9300D000D000D0CDB7D9
:10125000DEB726960FB6F894DEBF0FBECDBFDF9186
:10126000CF91089508950C9432090E943309809318
:10127000F6010C94D30808950C9435099091F60169
:10128000892B0C9435099091F60189230C9435092A
:101290009091F60189270C9435090C9432090C942D
:1012A0004D090E944F098093F5010C94D30880E00A
:1012B0000C94510991E001C0990F8A95EAF7892FA2
:1012C0000C94510921E030E001C0220F8A95EAF721
:1012D0008091F501822B0C94510921E030E001C08E
:1012E000220F8A95EAF720958091F50182230C94CC
:1012F000510921E030E001C0220F8A95EAF7809180
:10130000F50182270C9451099091F501892B0C94D9
:1013100051099091F50189230C9451099091F5019F
:1013200089270C94510908959295907F890F982FE1
:10133000977041E001C0440F9A95EAF7869586952B
:10134000869593E0899FF0011124E952FE4F30E029
:1013500020E070E05191DF011197CB01022E02C015
:10136000969587950A94E2F7817081958527842365
:1013700085278C932F5F3F4F2330310559F7089510
:101380009295907F890F982F977086958695869570
:1013900023E0829FF0011124E952FE4F50E040E02B
:1013A00080E0219130E0092E02C0369527950A94FD
:1013B000E2F721703327042E01C0220F0A94EAF7C6
:1013C000822B4F5F5F4F4330510559F70895CF92FD
:1013D000DF92FF920F931F93CF93DF936C010091E5
:1013E000F5018091F601082BC7E0D0E010E0FC2E5B
:1013F000C8010C2E02C0959587950A94E2F780FDEE
:101400000CC02197A0F7F12C8F2DDF91CF911F9168
:101410000F91FF90DF90CF900895B6018C2F0E941E
:101420003E11019771F3F0CFCF93DF93EC010E944F
:10143000E709BE01DF91CF910C943E111F93CF932A
:10144000DF93EB019091D601992331F0CB01DF912D
:10145000CF911F910C94140A882379F0CB010E943C
:10146000E709182F682FCE010E949409BE01812F31
:10147000DF91CF911F910C943E11CB010E94C009C6
:10148000182FF4CFEF92FF920F931F93CF93DF9318
:101490008C01892B81F0F12CEE24E394E801219654
:1014A000F8018491843770F4843008F05FC0813093
:1014B000B1F08230A1F1DF91CF911F910F91FF9098
:1014C000EF900895853709F44CC008F43DC09CE7BF
:1014D000980F903780F78F770E94200649C00E5FE3
:1014E0001F4FFE01849190E2980F983060F487704E
:1014F000FE2D01C0FF0F8A95EAF78F2F0E94E10DA4
:101500000E940E0E02C00E948E058F2D815030F277
:10151000EFE9FFE03197F1F700C00000F7CF0E5F71
:101520001F4FFE01849190E2980F983050F487701D
:10153000FE2D01C0FF0F8A95EAF78F2F0E94E70D5D
:10154000DFCF0E942006E1CF0E5F1F4FFE01C49146
:10155000C150D8F28FE99FE00197F1F700C0000079
:10156000F7CF0E5F1F4FFE01F490CFCF0E948E0584
:101570008E01CBCF1F93CF93DF93C091F70116E07D
:101580008091F8018C1304C0DF91CF911F910895D1
:10159000D0E01C9FF0011D9FF00D1124E750FE4F7D
:1015A0004081518162817381848195810E942209E9
:1015B0002196C770E5CF4091290250912A0260918F
:1015C0002B0270912C0280912D0290912E020C948E
:1015D00022091F93CF93DF9380912E02807FA9F47D
:1015E00080912B02882389F08091F701C091F80146
:1015F0006091290270912A02A0912C02B0912D02D3
:10160000D62FD72316E0C81304C0DF91CF911F91C6
:10161000089590E0109711F0DF3F19F4019687705C
:10162000F2CF189F9001199F300D1124F901E75056
:10163000FE4F41814713F2CF40814613EFCF4281E5
:101640004111ECCF438154814A1B5B0B483C51054F
:1016500028F780912E028F70806180932E02F9010D
:10166000E250FE4F80818F708061808389E292E03A
:101670000E94AB08DF91CF911F910C94BA0AAF92F0
:10168000BF92CF92DF92EF92FF920F931F93CF936F
:10169000DF93CDB7DEB761970FB6F894DEBF0FBE0C
:1016A000CDBF8C0185E0F801DE011D9601900D9201
:1016B0008A95E1F7F801E28089E2C82E82E0D82E0F
:1016C00060912C0270912D026115710509F45AC1C7
:1016D0009091290220912A02892F82238F3F09F4B9
:1016E00051C140815181A380B480F0902B02F5015B
:1016F000E61BF70BFF2009F4F6C080912E02382F6D
:10170000307FE83CF10508F0AFC0311179C0FE2C04
:10171000251323C0941321C0E1101FC08F70806176
:1017200080932E020E94DB0AC6010E94AB088091C2
:101730002E02F80185838F2D61960FB6F894DEBFD7
:101740000FBECDBFDF91CF911F910F91FF90EF9012
:10175000DF90CF90BF90AF900895AB2829F0842FF1
:1017600085238F3F09F027C180E0F82FF170DF2E2D
:1017700080FF3CC08091F7012091F80136E0821390
:1017800015C04D875E878D859E850E94140A292F7E
:1017900022952F702230F0F0243018F59F70F1F070
:1017A000F8019581907FD1F4D12C1EC090E0389F34
:1017B000F001399FF00D1124E750FE4F6181651350
:1017C00006C06081641303C06281E6120FC00196F7
:1017D0008770D5CF9F7011F0882331F3805E8830F9
:1017E00018F3C8010E94AB08FD2CA5CFEE2009F428
:1017F000A2CF80912E02816080932E02F12C9BCF8C
:10180000251306C0941304C0F801EE2009F487C024
:10181000C8010E940C09882319F1EE2009F180917A
:101820002E02803270F02091290230912A023887EE
:101830002F831986BB86AA868C87CE0107960E94C5
:10184000AB0886E0F801A9E2B2E001900D928A951A
:10185000E1F70E94E90A0E94DB0AFF24F3946BCFB0
:10186000C8010E94AB08F9CF311113C07A2DB98A93
:10187000A88A6E2D89890E94130989E292E00E944C
:10188000AB0886E0F60111928A95E9F70E94DB0A1F
:10189000B5CF25130FC094130DC0E1100BC0F80194
:1018A0008583C8010E94AB0886E0F60111928A95F3
:1018B000E9F741CFC8010E940C09882389F2EE2084
:1018C00079F280912E02803208F4BBCF2091290258
:1018D00030912A023A8329831B82BD82AC828E8397
:1018E000CE010196ACCFE83CF10508F03EC0FE2CDD
:1018F000EE2009F4B5CF25132AC0941328C0809197
:101900002E0280FD1BC0982F907FC1F0F8018583C7
:10191000903F31F0982F907F905F8F70892B858357
:10192000C8010E94AB0886E0F801A9E2B2E001908C
:101930000D928A95E1F70E94DB0AFDCE86E0F80160
:10194000A9E2B2E001900D928A95E1F7F4CEC801C8
:101950000E940C09811175CF80912E0281608093C5
:101960002E02C8010E94AB08E6CE7A2DB98AA88A59
:101970006E2D89890E94130986E0F60111928A95DD
:10198000E9F7D9CFEE2009F46BCFC8010E940C090A
:10199000F82E882309F464CF86E0F801A9E2B2E0CA
:1019A00001900D928A95E1F789E292E00E94890503
:1019B0000E94E90AC0CF81E08E25D7CE1F93CF9336
:1019C000DF93CDB7DEB72C970FB6F894DEBF0FBE0E
:1019D000CDBF4F83588769877A878B879C87CE01D5
:1019E00007960E943F0B882369F08A859B85892B87
:1019F00039F04F815885842F85238F3F09F071C0BE
:101A000016E05FC086E0FE013796DE011196019078
:101A10000D928A95E1F78A859B85892B89F38F81C1
:101A2000988589238F3F61F32091F80130E0C90147
:101A30000196877099274091F7014817190671F4AC
:101A40000E94E9081092F8011092F70186E0E9E29D
:101A5000F2E0DF011D928A95E9F7D2CF96E0929FDE
:101A6000D001939FB00D1124A750BE4FFE013196B7
:101A700001900D929A95E1F78093F8010E94BA0ABD
:101A8000BFCF819FC001112487509E4F0E943F0B02
:101A90008823E9F0E091F7011E9FF0011124E7503F
:101AA000FE4F4081518162817381848195810E94C2
:101AB00022098091F70190E0019687709927809321
:101AC000F7018091F7019091F8018913DACF2C96F4
:101AD0000FB6F894DEBF0FBECDBFDF91CF911F913F
:101AE000089569857A858B859C850E94220988CF17
:101AF000682F80910001909101010C94F123682FCF
:101B000080910001909101010C94FC2380910001CF
:101B1000909101010C94072480912F028595859561
:101B20008595089580912F028770089590912F02D6
:101B3000977081E009F480E008959091B50292FBDE
:101B4000222720F9281751F080FB92F99093B502D3
:101B50008091B4029091B5020C94A20E08958091E8
:101B6000B50282FB882780F991E089270C949D0DAE
:101B700081E00C949D0D80E00C949D0D80915302AA
:101B8000089590915302892B809353020895809574
:101B90009091530298239093530208951092530208
:101BA000089590915202892B809352020895809556
:101BB00090915202982390935202089510925202EB
:101BC000089590915102892B809351020895809538
:101BD00090915102982390935102089510925102CE
:101BE000089580913002089508950C94F40D909119
:101BF000B50292FD08C090913002981721F08093B1
:101C000030020C94F50D089580913002882329F05C
:101C10001092300280E00C94F50D0895E0910001DF
:101C2000F0910101809153028083E0910001F091D5
:101C30000101808190915202892B8083E091000103
:101C4000F0910101808190915102892B80839091C4
:101C50003002992381F0E0910001F091010180812F
:101C6000892B808380910001909101010E945D2366
:101C700081110E94040E80910001909101010C9449
:101C8000092308950C94410E9091B50292FD10C065
:101C900098E0899F90011124622B60932F020E948B
:101CA000620980912F028595859585950C94420E49
:101CB0000C94620910922F0280E00C94420E9091D5
:101CC0002F028095892380932F02282F277039F4C3
:101CD000282F082E000C330B9217130621F4909135
:101CE000B50292FF07C08595859585950E946D097F
:101CF0000C945A0E08956FEF7FEF90E080E00C9403
:101D0000542D90E080E00E94302D893E9E4F11F4CA
:101D10000C94B11D80E0089582E090E00C94222D97
:101D200083E090E00C94222DCF9384E090E00E9419
:101D3000222DC82F82E290E00E94222D982F8C2F16
:101D4000CF910895CF93C92F682F84E090E00E942F
:101D5000362D6C2F82E290E0CF910C94362DAB01A2
:101D6000BC018FE090E00C94482DAB01BC0183E1F5
:101D700090E00C94482D60E070E0CB010C94B50E1F
:101D800060E070E0CB010E94AF0E0C94BB0E69EED8
:101D90007EEF90E080E00E94542D60E082E090E0D1
:101DA0000E94362D60E083E090E00E94362D109274
:101DB000F60160E084E090E00E94362D60E082E26F
:101DC00090E00E94362D60E085E090E00E94362D84
:101DD00060E086E090E00E94362D6FEF87E090E0B3
:101DE0000E94362D40E050E0BA0188E090E00E9469
:101DF000482D60E08DE090E00E94362D40E050E0FC
:101E0000BA0188E190E00E94482D60E087E190E00F
:101E10000E94362D40E050E0BA018CE190E00E9433
:101E2000482D70E060E080E290E00E94542D40E098
:101E300050E0BA0188E190E00E94482D80E00E94C5
:101E4000CA1D0E94F01D0C94C00E0C94C70E682F82
:101E50008EE090E00C94362D0E94A92460936302DA
:101E600070936402809365029093660260935F02B0
:101E7000709360028093610290936202089585B727
:101E8000806885BF85B7806885BF089508950895E7
:101E90000C94460F08950C944A0F0E943F0F8CE15A
:101EA00092E10E940C250E94470F0C94480F81E09C
:101EB00008950C94570F089508950E945B0F0C9499
:101EC0005C0F0E9494240E94FF1D0E9413130E9425
:101ED000D11B0C944B0F8F929F92AF92BF92CF92D7
:101EE000DF92EF92FF920F931F93CF93DF93CDB7C3
:101EF000DEB72A970FB6F894DEBF0FBECDBF0E94A3
:101F00003B1381110E942C0F55E5852E52E0952E32
:101F100010E000E0A02E802F0E9457126C01F40107
:101F2000E190F1904F01E816F90609F45EC0809146
:101F3000670281FD0E946012C7018C259D25B12C8E
:101F4000EE24E394F12C9C012E213F21232B09F454
:101F500046C00E94590F8823A9F0BE82AF82CE20CE
:101F6000DF2081E0CD2809F480E088870E949D244D
:101F70008160782F9A8789874E815F8168858A85FD
:101F80000E944B05000F111FF801EB5AFD4F808195
:101F90009181E826F926F182E0820E940C1C0E94C1
:101FA0003C150E94FD22909154028917A9F10E94CC
:101FB000FD22809354022A960FB6F894DEBF0FBE1E
:101FC000CDBFDF91CF911F910F91FF90EF90DF90E8
:101FD000CF90BF90AF909F908F900C944305B39497
:101FE000EE0CFF1CF0E1BF12AECF0F5F1F4F0530AC
:101FF000110509F08FCF8FEF89838A831B820E949E
:102000009D248160782F9D838C8349815A816B81C7
:102010008D810E944B05C1CF2A960FB6F894DEBF82
:102020000FBECDBFDF91CF911F910F91FF90EF9029
:10203000DF90CF90BF90AF909F908F90089590E0E9
:1020400080E008950895FC01EE0FFF1FE456FD4F58
:10205000859194910895CF93DF930E944211EC01F2
:10206000811520E5920708F042C0811530E49307FE
:1020700008F0BDC0883E910528F5803E910508F026
:102080009DC0883A910588F4853A910508F08FC083
:102090008130910509F492C0009709F48FC004972C
:1020A00008F08CC0D0E0C0E089C08F3B910508F4F7
:1020B00089C0805C9109C03CD105A0F30E94231027
:1020C000EC017CC08115904250F4C11581E0D80725
:1020D00008F074C0C03FD10528F3D0656FC0C115AA
:1020E00090E3D90708F079C0CE019F70E7CF811542
:1020F00025E5920758F5811534E5930708F0A6C049
:10210000811542E5940750F4C11581E5D80708F41C
:1021100071C0DC2FCC27C16FD06A50C0982F969524
:1021200096959E0123703327C115D34508F07FC0D3
:10213000C1E0D0E002C0CC0FDD1F2A95E2F720E21B
:10214000929FC0011124C82BD92B6FC0C11589E5FE
:10215000D807A8F4C11598E5D90708F07CC0C115C7
:1021600026E5D20708F09ECF8C2F0E94D911C82FE8
:10217000D0E0DC2FCC27CC27DF71D0621FC0C11587
:102180003AE5D30708F46CC0CE0190568115904211
:1021900008F088CF8D2F8F710E94D91190E0982F71
:1021A000882788279F719C012C2BE901E6CFC55A0F
:1021B000D0E0C957DE4FC881D0E0D064CE01DF91B6
:1021C000CF910895C85AD0E0CC0FDD1FC75ADE4F1B
:1021D0000990D881C02DD464F1CFCE019927D3FFC7
:1021E00003C0EC01D86CEACFEC01D06CE7CFDF7014
:1021F000D06AE4CFCE01E4E096958795EA95E1F7C1
:1022000083702C2F26952695237090E2299F9001AC
:102210001124382B8C2F8370C1E0D0E002C0CC0F8A
:10222000DD1F8A95E2F7C22BD32BDC68C7CFC1E054
:10223000D0E002C0CC0FDD1F2A95E2F730E2939F79
:10224000C0011124C82BD92BDA68B8CFD82FCC27DE
:10225000C46FD06AB3CFDC2FCC27C06FD06AAECFAB
:102260008C2F8F700E94D91134E0D695C7953A957E
:10227000E1F7CF709C2FEC01D069A0CF0E94222003
:102280000C942B1082389105B1F1B0F48133910593
:1022900009F475C048F48932910509F469C08A329D
:1022A000910509F473C008958533910509F459C067
:1022B0008933910501F10895833E9105A9F138F420
:1022C000803E9105F9F0823E910549F10895863EE0
:1022D0009105A9F1873E9105C9F1843E910519F553
:1022E0002091B50221FF1FC08091B40284FD14C06B
:1022F00087EE90E008952091B4022370A1F080EE63
:1023000090E008952091B40220FD47C03091B502BD
:1023100030FF09C024FF44C090E080E004C0209159
:10232000B40222FDF7CF08952091B40222FD3BC0F4
:102330003091B50230FDE3CF24FFF5CFEDCF2091F2
:10234000B40223FFF0CF24FDE7CFD2CF2091B40217
:1023500023FD2CC03091B50231FFEECF84EE90E02A
:1023600008952091B40225FFDECF89E290E0089520
:102370002091B40225FFD7CF85E390E00895209106
:10238000B40226FFD0CF8AE290E008952091B402F3
:1023900026FFC9CF81E390E0089589E390E0089596
:1023A00083EE90E0089582EE90E0089586EE90E04E
:1023B00008959091B40292FF06C0282F287128300A
:1023C000F9F4877F846093FF06C0282F2871283195
:1023D000F1F4877E84612091B50220FF06C0382F7A
:1023E00038713830D9F4877F816021FF06C0282FEB
:1023F00028712831D1F4877E816194FD877E08950C
:10240000282F24712430F9F68B7F8860DCCF282FA9
:102410002471243101F78B7E8861DDCF382F317133
:10242000313019F78E7F8860E0CF282F217121315C
:1024300021F78E7E8861E1CF80E008950C947B0EB9
:102440000E943B132FEF86E791E02150804090409F
:10245000E1F700C000000E943B1380E00E94571289
:1024600080FF04C00E941E120C94E82408950C946E
:1024700020120E94810E811102C00E94250F0E942D
:102480008C0E809367020E94940E9093B502809305
:10249000B4020E9437120E94900E0E943C09809163
:1024A000F5010C944F090C9479030C947A03E82FEE
:1024B000F0E0EE0FFF1FE054FD4F80819181089501
:1024C000089580EA8A95F1F7089500C008950C9464
:1024D0006112F894E82FE295EF70F0E031A1282F17
:1024E0002F7081E090E001C0880F2A95EAF7982FBD
:1024F0009095932391A392A1892B82A37894089518
:10250000CF93DF93CAE9D1E089918F3F11F00E9408
:10251000691281E0CF39D807B9F7CAE8D1E08991CB
:102520008F3F11F00E94691281E0CA39D807B9F7CC
:10253000DF91CF910895AF92BF92CF92DF92EF9249
:10254000FF920F931F93CF93DF938C01B62EC62F6C
:10255000D0E0CE0186569E4F7C01FC0120812F3FAA
:1025600009F453C0F894E22FE295EF70F0E031A146
:102570002F7081E090E001C0880F2A95EAF7932F31
:10258000982B91A392A18095892382A378940E948D
:102590006512EAE8F1E030E020E0D12CC12C41E006
:1025A00050E081918F3FE1F1A82FA295AF70B0E08C
:1025B00090966C9170E08F7002C0759567958A95C2
:1025C000E2F760FD2DC0CA01022E02C0880F991FDC
:1025D0000A94E2F7C82AD92A2F5F3F4F20313105EC
:1025E00001F7F70180818F3F11F00E94691261E0CD
:1025F000C114D10409F460E08B2D0E946712CC0F46
:10260000DD1FC00FD11FD982C882DF91CF911F91EA
:102610000F91FF90EF90DF90CF90BF90AF90089513
:1026200090E080E0D7CF0E948012A6EBB2E0119636
:102630001C921E92E0ECF2E01182108213961C9222
:102640001E9212971382128215961C921E92149754
:102650001582148217961C921E9216971782168264
:1026600019961C921E9218971186108685E00E947A
:1026700086130C94F403FF920F931F93CF93DF9371
:10268000CDB7DEB72A970FB6F894DEBF0FBECDBF29
:102690008E010F5F1F4F8AE0F80111928A95E9F7CA
:1026A000F12C6F2DC8010E949B12F394F5E0FF12EC
:1026B000F8CF4AE050E0B80186EB92E00E94152D79
:1026C000FF24F394009709F4F12C892B41F08AE060
:1026D000F801A6EBB2E001900D928A95E1F72F2D5B
:1026E00045E060EC72E086EB92E00E9487130E9466
:1026F000FA038F2D2A960FB6F894DEBF0FBECDBF1A
:10270000DF91CF911F910F91FF9008950895FF924F
:102710000F931F93CF93DF93F82E092F162FD72FE8
:10272000C42F222349F081E080936A020E949D24F5
:10273000909369028093680280916A028823A1F0D5
:1027400080916802909169020E94B524059760F01B
:10275000EF2DF02FA12FBD2F90E080E0D0E08C175F
:102760009D0744F010926A02DF91CF911F910F9163
:10277000FF900895219131912D933D930196EFCFD4
:102780000E9419240E94B2260E94CB260E94DD26B8
:102790000E945D0FFBCF8091710280FF12C060919B
:1027A000070185E0689FB0011124759567957595BF
:1027B000679560387105A8F561157105A1F1862F3F
:1027C000089581FF09C06091070185E0689FB0010D
:1027D000112475956795EDCF6091070182FD0AC0C0
:1027E000809170028823D1F09091060160910701D9
:1027F000891728F085E0689FB0011124DACF869F01
:10280000B001112485E0869F9001879F300D11242F
:10281000692F70E0C9010E94942CCBCF65E070E075
:10282000CECF8FE7089581E008958091710280FFF7
:102830000CC06091030170E075956795759567957B
:102840006115710549F1862F089581FF06C06091D9
:10285000030170E075956795F3CF6091030182FDE8
:102860000BC090916F029923A1F0609102018091B9
:102870000301961738F0682F70E06038710500F397
:102880008FE70895899FC001112470E00E94942C65
:10289000F4CF61E070E0D7CF81E00895803F31F45C
:1028A0000E94CB138195809375020895813F19F49E
:1028B0000E94CB13F8CF823F31F40E94CB13819555
:1028C000809374020895833F19F40E94CB13F8CFCC
:1028D000893F29F40E9415148093760208958A3F57
:1028E00021F40E9415148195F7CF8B3F31F40E949B
:1028F000151481958093770208958C3F19F40E94F6
:102900001514F8CF9CE0980F953070F4845F990B04
:1029100021E030E001C0220F8A95EAF7809173022E
:10292000822B8093730208958D3F31F48091710260
:1029300081608093710208958E3F21F4809171022D
:102940008260F7CF8F3FB9F7809171028460F1CF39
:1029500040917402803F59F48091750287FF0DC049
:102960001092750241110BC01092700208C0813F95
:1029700081F48091750218169CF3442381F08091B4
:10298000760290917702892B09F05AC010926F025B
:102990000895823F49F447FFF0CF1092740280916E
:1029A00075028111ECCFE0CF833F19F41416ACF31C
:1029B000E4CF90917602893F29F41916F4F610922B
:1029C0007602DBCF8A3F19F497FFD7CFF8CF9091EB
:1029D00077028B3F29F497FFD0CF10927702CDCFAB
:1029E0008C3F19F41916CCF3C8CF9CE0980F9530A2
:1029F00090F4845F990B21E030E0B90102C0660FCA
:102A0000771F8A95E2F7CB01809590917302892315
:102A100080937302B2CF8D3F31F4809171028E7F2B
:102A200080937102AACF8E3F21F4809171028D7F35
:102A3000F7CF8F3F09F0A1CF809171028B7FF0CF4C
:102A400008950E949D249C019091740280917502CA
:102A5000982B21F030936E0220936D0290917602B4
:102A600080917702982B21F030936C0220936B02B7
:102A700082E792E00C942323EF92FF920F931F932F
:102A8000CF93DF9300D000D000D0CDB7DEB786E083
:102A9000E2E7F2E0DE01119601900D928A95E1F7EE
:102AA000E0907402F0907502009176021091770226
:102AB00010927402109275021092760210927702B0
:102AC0008E2D8F2991F080916D0290916E020E945F
:102AD000B524AC0190917002992309F43FC0809114
:102AE00008018417150608F447C0802F812B91F048
:102AF00080916B0290916C020E94B524AC01909180
:102B00006F02992309F477C0809104018417150698
:102B100008F47FC08091740290917502892B909186
:102B20007602892B90917702892B11F00E94211552
:102B300086E0FE013196A2E7B2E001900D928A95FF
:102B4000E1F726960FB6F894DEBF0FBECDBFDF913A
:102B5000CF911F910F91FF90EF900895209109015F
:102B60008AE0289F900111242417350708F0BDCF73
:102B70009F5F9093700202C09F3FD1F7EE2059F003
:102B80000E94CB139FEF1E140CF491E0899F802DBF
:102B9000112480937402FF2059F00E94CB139FEF01
:102BA0001F140CF491E0899F802D112480937502ED
:102BB00030917402332309F498CF209175022223B7
:102BC00009F493CF45EB3403C0011124992359F044
:102BD0009093740245EB240390011124332339F0C0
:102BE0003093750282CF81E080937402F3CF81E04D
:102BF000809375027ACF209105018AE0289F900189
:102C000011242417350708F085CF9F5F90936F023A
:102C100002C09F3FD1F7002359F00E9415149FEF87
:102C200010160CF491E0899F802D11248093760278
:102C3000112359F00E9415149FEF11160CF491E026
:102C4000899F802D1124809377023091760233235F
:102C500009F460CF20917702222309F45BCF45EB82
:102C60003403C0011124992359F09093760245EB67
:102C7000240390011124332339F0309377024ACF93
:102C800081E080937602F3CF81E08093770242CF98
:102C900086E0E2E7F2E0DF011D928A95E9F7109203
:102CA000700210926F02109271020895EF92FF92DB
:102CB0000F931F93CF93DF93EB01E82FD11110C037
:102CC000442321F0F0E0ED54FC4FE4916E2F7E2F71
:102CD0008E2FDF91CF911F910F91FF90EF9008956C
:102CE0000D2F10E0282F30E0442329F02D543C4FC5
:102CF000F901249130E0F6E0CF9FC0011124EFEFFD
:102D0000F0E0BF010E94802CAB018C2F90E0880F77
:102D1000991FA5E5A49FB001A59F700D1124861BE6
:102D2000970B982F990F980FBF01601B710B629F33
:102D3000D001639FB00D729FB00D11248B2F9D9F0A
:102D4000B0011124672F7727EF01C61BD70BBE01F7
:102D5000629FE001639FD00D729FD00D11247F010F
:102D6000E91AF108E09EB001E19E700DF09E700D31
:102D70001124672F7727E61BF70BE29F8001E39F63
:102D8000100DF29F100D1124E12F722F42305105CA
:102D900099F048F44115510569F04130510581F031
:102DA000EB2F8D2F07C04430510569F080F046307D
:102DB0005105B1F76E2F8DCFE22F7B2F812FFACFE8
:102DC000E22F7D2FF7CFEB2F822F712FF3CF7B2FA9
:102DD000822FED2FEFCF41E00C94561608950C94FE
:102DE000EB16CF93DF93762FE901682F842F0E9493
:102DF000EF16798368838A83DF91CF91089580915C
:102E0000CA02982F9E7F29F4817082608093CA0243
:102E100008958A34E8F381708864F8CF88E090E000
:102E20000C942A2DCF92DF92EF92FF926B017C01DE
:102E30000E94FF16B701A60188E090E0FF90EF9096
:102E4000DF90CF900C94482D6091CA027091CB0214
:102E50008091CC029091CD020C941217EAECF2E032
:102E600083E0808311828FEF828383831482608169
:102E70007181828193810C9412178091CA0280FF24
:102E800002C08695089580E008959091CE02933017
:102E900018F49F5F9093CE02882351F06091CA028C
:102EA0007091CB028091CC029091CD020C941217BC
:102EB000089581E00C9445179091CE02992319F062
:102EC00091509093CE02882351F06091CA02709184
:102ED000CB028091CC029091CD020C9412170895F0
:102EE00081E00C945C178091CE0208958093CE020D
:102EF000662351F06091CA027091CB028091CC029E
:102F00009091CD020C941217089560E00C947617FE
:102F10008091CB0208958091CC0208958091CD02DA
:102F2000089570E00C94851D60910E018091CA0295
:102F300080FF0AC080910D0123E0829FC00111240F
:102F400081539D4F0C94911780910F019091100126
:102F500023E0829FF0011124E153FD4F891750F7C0
:102F60001182108212828F5F3396F8CF9091CA023D
:102F700090FF14C090910F012091100133E0939FB6
:102F8000F0011124E153FD4F921710F00C949417A7
:102F90008183608342839F5F3396F6CF0895CF93FA
:102FA000DF9300D00F92CDB7DEB79091CA0290FFA9
:102FB0000AC09E012F5F3F4F0E94F1164B8169812D
:102FC0008A810E94B6170F900F900F90DF91CF91DA
:102FD0000895CF93DF93EC01EC81F0E0E255FD4FD3
:102FE0004491EAECF2E0628181810E94CF178C81EA
:102FF0008F5F8C83DF91CF910895CF93DF93EC01A6
:10300000EAECF2E0438162818C810E94CF178C81CF
:103010008F5F8C83DF91CF9108950F931F93CF9390
:10302000DF9300D00F92CDB7DEB78C01809178028C
:1030300081110AC09E012F5F3F4F4FEF6FEF0E943B
:10304000F1168A8180937802F8016481613069F019
:103050008091780240E0662361F040E0623011F434
:103060004091780280E060E004C06091780240E026
:1030700080E00E94B617F801848190E0019663E039
:1030800070E00E94942C84830F900F900F90DF913A
:10309000CF911F910F910895AF92BF92CF92DF927F
:1030A000EF92FF920F931F93CF93DF9300D00F9275
:1030B000CDB7DEB7182FF62E042FE22E9091CA025C
:1030C00090FF29C0E92FE695AE2FB0E0A156BE4F84
:1030D0008C91809382029E7F923059F59E012F5FE2
:1030E0003F4F812F0E94F1164B8169818A810E9496
:1030F000B6171093CB02F092CC020093CD02EE20D3
:1031000051F06091CA027091CB028091CC029091F3
:10311000CD020E9412170F900F900F90DF91CF9168
:103120001F910F91FF90EF90DF90CF90BF90AF90E5
:103130000895823019F40091CD02DBCF863019F466
:103140001091CB02D6CF8930D9F3893191F6E9516C
:103150008E2F8170D82EE695F0E0E255FC4FA590B9
:10316000B490C12CBB2460911101C61618F00E94C6
:103170009417BFCF2C2D30E0A29EC001A39E900DCE
:10318000B29E900D112470E00E94802C812FD110EE
:1031900013C0860F40910F01420F532F511D9A010A
:1031A000220F331F240F351F21533D4F402F6F2D0A
:1031B0000E94F116C394D7CF861BECCFEAECF2E065
:1031C0009181282F4381628188E0890F0C944C18EB
:1031D00081E00C94DE18EAECF2E09181282F438123
:1031E000628188EF890F0C944C1881E00C94EB18E5
:1031F000EAECF2E0628128E0620F08F46FEF282F1A
:10320000438181810C944C1881E00C94F818EAEC0D
:10321000F2E0628128E0621B08F460E0282F43811D
:1032200081810C944C1881E00C940719EAECF2E0CF
:10323000438128E0420F08F44FEF282F62818181FB
:103240000C944C1881E00C941619EAECF2E04381DE
:1032500028E0421B08F440E0282F628181810C9411
:103260004C1881E00C94251920E00C944C18EF9236
:10327000FF921F93CF93DF93EC0110E0EE24EA94CA
:10328000F12C60911101161770F00E9494179A8129
:103290008C8190FF27C08F5F8C83DF91CF911F912E
:1032A000FF90EF90089520910F01422F410F552775
:1032B000551FCA019A01220F331F280F391F2153AE
:1032C0003D4F70E0C7010E94942C962F8C81409155
:1032D000CD026091CC02199F800D11240E94F1163D
:1032E0001F5FCFCF8150D8CFBF92CF92DF92EF92A6
:1032F000FF920F931F93CF93DF93FC0182810FEF17
:1033000080FF01E010E0809111011817C0F00E94C9
:10331000941780917A02013009F051C0811102C0E6
:1033200080911101815080937A02DF91CF911F919A
:103330000F91FF90EF90DF90CF90BF900895C091D4
:103340000F01C12ED12CCC0DDD2DD11DCE01880F4A
:10335000991FC80FD91FC153DD4F198218821A82D5
:1033600034E0E32EF12CB12C80917A028B0D813167
:1033700004F18F70082E000C990BC816D90691F431
:103380008091CD028E9DA0018F9D500D11245595E9
:103390004795559547959E016091CC028091CB024F
:1033A0000E94F116B00EF1E0EF1AF108E9F61F5F86
:1033B000AACF87FFDFCF90911101890FDBCF90E07B
:1033C00001966091110170E00E94942CACCF0F9394
:1033D0001F93CF93DF9380910F019091100123E011
:1033E000829FF0011124E153FD4F891740F1C0E0A5
:1033F000D3E060911101C61740F10E94941720910B
:103400000B0180917902820F8093790290910C01D7
:10341000920F90930C01191654F4082E000C990B7E
:10342000409111014150550B841795071CF02195CF
:1034300020930B01DF91CF911F910F91089511827D
:10344000108212828F5F3396D0CF0C2F10E070E085
:10345000C8010E94942C20910F01820F482F50E048
:1034600020917902022E000C330B02171307BCF0D7
:1034700020910C01022E000C330B201731077CF039
:103480008D9F9001112421533D4F4091CD026091B9
:10349000CC028091CB020E94F116CF5FAACFFA0135
:1034A000EE0FFF1FE40FF51FE153FD4F1182108255
:1034B0001282F3CF8F929F92AF92BF92CF92DF9200
:1034C000EF92FF920F931F93CF93DF93EC014C8108
:1034D000042F10E09801D8010E94DF2C9B01AC0161
:1034E0000E94F52C4B015C01E0E2F0E0E01BF10BE7
:1034F000A5E5B0E0AC019B010E94F52C6B017C01BD
:103500009F01DF010E94D72C9B01AC010E94002D7E
:103510009B01AC01280D391D4A1D5B1DC701B60179
:103520000E94A82CF22E822F90E039E23F1560F124
:1035300043E0249F9001112435952795122F109573
:1035400000E085E5E82EEF1880911101081758F189
:103550000E9494179C8181E0992319F0903219F40C
:103560008FEF80930A0180910A01890F8C83DF918C
:10357000CF911F910F91FF90EF90DF90CF90BF9070
:10358000AF909F908F90089525E530E0B901681BBA
:10359000790B9B01220F331F260F371F37FFCCCF2C
:1035A0002F5F3F4FC9CF8E2D01FD8F2D20910F0131
:1035B000622F600F7727771F9B01220F331F260F83
:1035C000371F21533D4F412F6091CC020E94F116CD
:1035D0000F5FBACF0F931F93CF93DF93EC0110E0EF
:1035E00000E0909111019017110609F06CF40E940F
:1035F00094178C8190E00196817099278C83DF91DC
:10360000CF911F910F91089520910F01A801420FB2
:10361000511D9A01220F331F240F351F21533D4F97
:103620004C816091CC028091CB0296959017110647
:1036300051F04CF0442349F04091CD020E94F11624
:103640000F5F1F4FCECF4423B9F340E0F7CFEAEC32
:10365000F2E080818E7F808360817181828193819D
:103660000E941217109283022FEF80E792E0215000
:1036700080409040E1F700C000000C949417EAEC01
:10368000F2E080818E7F8083109283022FEF80E7AB
:1036900092E0215080409040E1F700C000000C947F
:1036A00094176091CA02669570E04BE050E082E1A9
:1036B00091E00E94082D892B19F481E08093830208
:1036C0000E949D2490937C0280937B0208959091A8
:1036D000CA0290FF35C09170811128C0926090930A
:1036E000CA02662351F06091CA027091CB028091A8
:1036F000CC029091CD020E9412176091CA02669589
:1037000070E04BE050E082E191E00E94082D892BAF
:10371000A1F01092830281E080937E024091CD025D
:103720006091CC028091CB020C943419853210F058
:103730009864D5CF880F982BD2CF0E94511BEBCF26
:103740000895682F9091CA02969581E0890F85327D
:1037500008F081E00C94671B81E00C94A11B682F9A
:103760009091CA0296958FEF890F09F484E20C9428
:10377000671B81E00C94AF1B61E00C94671BEAECC3
:10378000F2E080818160808386950C94BC1B8091DF
:10379000CA0280FD0C94271B0C94BF1B60E00C94A4
:1037A000671B8091810281112EC00E94810E8111C0
:1037B00004C00E94250F0E942E170E940E176093CE
:1037C000CA027093CB028093CC029093CD026E7F9D
:1037D00061F40E942E170E940E176093CA02709324
:1037E000CB028093CC029093CD020E94FF161092E0
:1037F00083028091CA0280FF03C086950E94CE1B7F
:1038000081E0809381020895EAECF2E0808181609A
:10381000808386950C94CE1B0F931F93CF93DF93D9
:1038200080918302882309F486C080918202E0910E
:10383000CA02E695E81BE0937D02823091F5F0E044
:10384000E655FD4FE491CE2FD0E009EE17E18091CF
:103850007E02882361F010927E020E949D24909344
:103860007C0280937B021092800210927F020E9461
:103870009D24E0917B02F0917C028E1B9F0B8F3F79
:103880009F4708F058C0EC0FFD1FF0937C02E093B7
:103890007B028BE792E0F801DF91CF911F910F91AE
:1038A0000994863049F4F0E0E955FD4FE491CE2FBC
:1038B000D0E00DEF17E1CBCF893051F4E695F0E081
:1038C000EC55FD4FE491CE2FD0E007E319E1BFCFD7
:1038D0008F3051F4E695F0E0EF55FD4FE491CE2F97
:1038E000D0E004E719E1B3CF853149F4F0E0E256C6
:1038F000FD4FE491CE2FD0E007EE19E1A8CFC8E24A
:10390000D0E00AE51AE1883109F4A1CF833239F415
:10391000ECE9F2E0C591D4910DE018E198CFC4EF45
:10392000D1E00AEE1AE1843209F491CFC0EDD7E07C
:103930000EEE16E18CCFDF91CF911F910F9108957C
:10394000FA01811101C0FB010994CF93DF93C82FC5
:10395000D62F0E943D178C1740F00E943D178D17FF
:1039600020F4DF91CF910C94AC1B8C2FDF91CF9181
:103970000C94BC1B1F93CF93DF93EC01FB011281CE
:10398000112309F4C0C00E94BE0D8272CC3CFCE53C
:10399000DF0709F49CC008F044C0C63CECE5DE0734
:1039A00009F481C0F0F4C33C9CE5D90709F471C067
:1039B00048F4C23CDC4509F469C0812FDF91CF9106
:1039C0001F910895C43C9CE5D90709F467C045EFF1
:1039D00058E168EE78E1C53CDC4579F70E94A01C0F
:1039E00053C0C93CFCE5DF0709F467C068F4C73C75
:1039F000ECE5DE0709F45CC044E059E163E179E1FC
:103A0000C83CDC4559F3D9CFCA3C9CE5D90709F439
:103A100059C040E757E169E577E1CB3CDC45F1F27D
:103A2000CCCFC13DFCE5DF0709F462C098F4CE3C81
:103A30009CE5D90709F454C008F44EC0CF3CFCE51E
:103A4000DF0709F452C0C03DDC4509F0B6CF6EE097
:103A500089E048C0C43D9CE5D90709F44FC058F43B
:103A6000C23DFCE5DF0709F446C0C33DDC4509F073
:103A7000A4CF88E132C0C53D9CE5D90709F441C017
:103A8000CD35DD4509F099CF10E097CF0E94C71BD7
:103A9000FBCF49EB5BE16CEA7BE1A0CF4CEA5BE159
:103AA00069EB7BE19BCF48EE58E165EF78E196CF7B
:103AB00043E159E164E079E191CF41E359E162E208
:103AC00079E18CCF42E259E161E379E187CF49E5C1
:103AD00057E160E777E182CF81E00E94BC1BD4CF41
:103AE00065E082E00E94A51CCFCF68E086E0FACFB7
:103AF00064E18FE0F7CF67E185E1F4CF62E289E12D
:103B0000F1CF83E2EACF11E058CF6E9A4EB14F7BEE
:103B10005EB15064EFB7F8949B01220F331F260F5C
:103B2000371F280F391F2817390741F4EFBF8FE5DA
:103B300094E00197F1F700C000000895DC016D9159
:103B4000CD0178E05EB9000000C067FF4EB9660F96
:103B5000000000C000C000C04EB900C07A9591F7C7
:103B6000E2CF83E290E00E94222D813289F484E248
:103B700090E00E94222D803159F485E290E00E946D
:103B8000222D91E0823209F090E0892F8170089512
:103B900080E0FCCFCF93C82F6FEF811161E283E209
:103BA00090E00E94362D6FEFC11160E184E290E059
:103BB0000E94362D6FEFC11162E285E290E0CF9155
:103BC0000C94362D089586E290E00E94222D682FF5
:103BD00070E090E080E0089586E290E00C94362D4D
:103BE00080E00E94CA1D60E070E0CB010E94EC1DE5
:103BF0000E949A1F0E94862081E00C94CA1D0E9498
:103C0000E21D0E94B11D811102C00C94F01D0895A7
:103C1000CF93FB01C281CC2309F19C0122513F4586
:103C20002031310520F582510E949620C0E08C2F72
:103C3000CF91089581E00E94620943E062E081E053
:103C40000E94EB03F3CF81E00E946D0943E062E044
:103C500081E00E94EB03EBCF82E0F6CF8031FFE5FD
:103C60009F0789F381319F45B9F3C1E0E0CF8031EF
:103C7000EFE59E07F9F281319F45C9F682E0DBCF7F
:103C80002FEFFC0120830895CF93DF93EC0188810F
:103C90008138A9F028F4803871F0DF91CF91089530
:103CA000823881F08338C9F70E94881789830E947F
:103CB0008B178A83F2CF0E948E178983EECF0E94E2
:103CC0003D17FBCF0E947317F8CFCF93DF93EC0122
:103CD00088818138E1F028F4803869F0DF91CF9154
:103CE0000895823811F18338C9F70E948E17482F42
:103CF0006A81898108C0D9810E948B17C82F0E94D0
:103D000088174D2F6C2FDF91CF910C943419898136
:103D10000E94CE1B8981811104C0DF91CF910C9448
:103D20003F1BDF91CF910C94041C8981DF91CF91CF
:103D30000C948517EF92FF920F931F93CF93DF930D
:103D4000EC01062FDC01ED91CD01E150E33108F0EB
:103D5000ADC0F0E0E657F24D0C94CA2C198289E010
:103D60008A83602FCE01DF91CF911F910F91FF9039
:103D7000EF900C94A7258981823069F0833071F02F
:103D80008130D9F40E94A9240E94D02C6A837B83BD
:103D90008C839D83E6CF0E94E31DF6CF7E0110E069
:103DA000812F0E945712F701928383831F5FF2E0F5
:103DB000EF0EF11C1530A1F7D4CF602FCE010E9479
:103DC000401ECFCF89818230C1F76A817B818C818F
:103DD0009D810E94D02C0E94EC1DC3CF4B816A8133
:103DE00089810E946C1F9827892798279D838C833F
:103DF000B8CF2C813D813227232732274B816A811E
:103E000089810E94851FADCF0E949A1FAACF0E9470
:103E1000651EA7CF0E94441EA4CF0E942417A1CFE5
:103E20000E942F2089839DCF0E94312098278927C7
:103E300098279A83898395CF6B8170E089819A81D5
:103E4000AE014C5F5F4F9827892798270E94342046
:103E500088CF6B8170E089819A81AE014C5F5F4FA2
:103E60009827892798270E945B207BCF0E94862075
:103E700078CF0E94591FD6CF6B8170E089819A81DB
:103E8000AE014C5F5F4F9827892798270E94D21F69
:103E900068CF6B8170E089819A81AE014C5F5F4F82
:103EA0009827892798270E94F81F5BCF8FEF888378
:103EB00058CF84E0089590E2699FB001112450E04A
:103EC000440F551F640F751F90EA899F600D711D87
:103ED0001124CB01879608950F931F93CF93DF93FF
:103EE0000E945B1F8C010E94222DC82FD0E0DC2F86
:103EF000CC27C80101960E94222D9E01282BC901C2
:103F0000DF91CF911F910F9108950F931F93CF933E
:103F1000DF93122F032F0E945B1FEC01602F0E9482
:103F2000362D612FCE010196DF91CF911F910F9118
:103F30000C94362DAF92BF92CF92DF92EF92FF9208
:103F40001F93CF93DF938CEAC82E80E0D82ED0E069
:103F50007601C0E014C0F50125913491412F6C2FFA
:103F60008D2F0E94851F82E0A80EB11C1F5F1031AB
:103F700091F780E2E80EF11CCF5FC53019F05701D0
:103F800010E0E9CFDF5F80EAC80ED11CD43001F722
:103F9000DF91CF911F91FF90EF90DF90CF90BF9076
:103FA000AF900895EF92FF920F931F93CF93DF93FB
:103FB000EC018A017C01E60EF71ECE018796CE1534
:103FC000DF0539F4DF91CF911F910F91FF90EF90B2
:103FD0000895C03822E0D20740F40E94222DF80153
:103FE00080830F5F1F4F2196E8CFF8011082F9CF31
:103FF000CF92DF92EF92FF920F931F93CF93DF93B5
:104000007C016A018C01060F171FEC01CE01879617
:10401000C017D10749F4DF91CF911F910F91FF9005
:10402000EF90DF90CF900895C03822E0D20740F49F
:10403000FE01EE19FF09EC0DFD1D60810E94362D79
:104040002196E4CF462F843038F4753028F460315F
:1040500018F4672F0C946C1F90E080E0089580E1C5
:10406000089589E591E00895EF92FF920F931F93D1
:10407000CF93DF93EC018A017C01E60EF71ECE019F
:1040800089559D4FCE15DF0539F4DF91CF911F91F2
:104090000F91FF90EF900895C93521E0D20740F4C9
:1040A0000E94222DF80180830F5F1F4F2196E7CFDA
:1040B000F8011082F9CFCF92DF92EF92FF920F9327
:1040C0001F93CF93DF937C016A018C01060F171FAA
:1040D000EC01CE0189559D4FC017D10749F4DF91FE
:1040E000CF911F910F91FF90EF90DF90CF900895A7
:1040F000C93521E0D20740F4FE01EE19FF09EC0DAD
:10410000FD1D60810E94362D2196E3CFCF93DF9372
:10411000C7EAD2E060E0CE010E94362D2196C1159B
:1041200084E0D807B9F7DF91CF910895DF92EF923D
:10413000FF920F931F93CF93DF9300D000D0CDB7A2
:10414000DEB7F82E8FE08F1540F08FEF93E00E94DE
:10415000222D07EA12E08823C1F00F900F900F90F4
:104160000F90DF91CF911F910F91FF90EF90DF9013
:104170000895011584E0180781F3C8010E94222DDB
:10418000811101C0FA940F5F1F4FF110F2CF198215
:104190001A821B821C82DD24D39478018FEFE81AE7
:1041A000F80AC8010E94222D89831A828823A9F265
:1041B0009FEF980F933078F48A83D9820E5F1F4F58
:1041C000C7010E94222D8B83882339F2CE010196EC
:1041D0000E943905E2CF8701F9CF0F931F93CF9348
:1041E000DF93C42FD22FFC0182818823C9F0409332
:1041F00086020E949D24909385028093840280E22F
:104200008C0F883008F050C0C77081E001C0880F63
:10421000CA95EAF7DF91CF911F910F910C94950603
:1042200010918602141335C080918402909185020A
:104230000E94B524883C910560F5C0E2CD0F1D17A2
:10424000B9F080E2810F883040F4177081E001C03E
:10425000880F1A95EAF70E949C06C83048F481E05E
:104260009D2F977001C0880F9A95EAF70E949506D6
:10427000802F0E948D06C830B8F4D77081E001C04D
:10428000880FDA95EAF7DF91CF911F910F910C9487
:104290009C0680E28C0F883038F4C77081E001C042
:1042A000880FCA95EAF7EFCFDF91CF911F910F9159
:1042B00008950F939C01CB01233F4CE5340759F13E
:1042C000A8F4283DFCE53F0701F1293D4CE5340702
:1042D000D1F1273D3C4591F406E221EE41EE67ED38
:1042E0007CE50E94ED2080E00F910895253FFCE5DC
:1042F0003F07E9F0B0F0263F3C45F9F0FC01828130
:10430000882339F110928602EFCF07E225EE45EEC1
:1043100068ED7CE5E6CF06E221EE40EE63EF7CE55A
:10432000E0CF07E225EE44EE64EF7CE5DACF06E26B
:1043300021EE42EE65EF7CE5D4CF07E225EE46EEB6
:1043400066EF7CE5CECF08E221E045EE69ED7CE545
:10435000C8CF81E0C9CFCF93DF93EC01FB0182810D
:10436000882309F419C1C230FCE5DF07C0F1C6316A
:104370009CE5D90730F09E012A5F3C452930310584
:1043800070F50E94940E9093B5028093B402C031F0
:10439000ECE5DE0709F4CFC008F05BC0C8308CE55F
:1043A000D80709F4B6C088F5C430ECE5DE0709F497
:1043B000A8C0C0F4C2308CE5D80709F49CC0809135
:1043C000B4028260C330DC4509F498C08091B40225
:1043D0009091B5020E94A20E0E94E90880E0DF9150
:1043E000CF9108958091B4028061C630ECE5DE077C
:1043F00009F484C08091B4028860C730DC4508F4B9
:104400007DC08091B402806279C0CC308CE5D80741
:1044100009F489C070F48091B4028C60CA30ECE574
:10442000DE0709F46BC008F478C08091B4028E7F77
:1044300065C0CE308CE5D80709F479C08091B4020C
:104440008B7FCF30DC4508F459C08091B4028F7E59
:1044500055C0CB3FECE5DE0709F457C030F5C3315A
:104460008CE5D80709F46FC078F4C131ECE5DE07BC
:1044700009F465C0C231DC4509F0A8CF0E94E90803
:104480008091B4028F773AC0C5318CE5D80709F422
:1044900062C008F476C08091B5028160CA3FDC45F5
:1044A00009F094CF8093B50291CFCF3FFCE5DF07B1
:1044B00009F44DC088F48091B5028D7FCD3F9CE515
:1044C000D90781F38091B5028E7FCE3FDC4550F352
:1044D0008091B5028360E6CFC130FDE5DF0709F4C6
:1044E00059C008F444C080E0C230DD4509F06ECF09
:1044F0000E94270F6BCF8091B40281608093B40239
:1045000065CF8091B4028460F9CF8091B50282605A
:10451000C9CF8091B4028064F1CF0E94E9088091F4
:10452000B4028068EBCF8091B4028D7FE7CF809199
:10453000B402877FE3CF8091B4028F7DDFCF80917B
:10454000B4028F7BDBCF8091B402837FD7CF809181
:10455000B5028C7FA7CF8091B40282FB992790F996
:1045600021E0922790FB82F990FB83F9C7CF8091DD
:10457000B502982F909591708E7F892B90FB81F9D1
:1045800091CF0E94E9089091B402892F97FB87F997
:104590008058B4CF81E0ACCF81E021CFCF93DF93BF
:1045A000EB0186319C4511F50E94BE0D9A8199233D
:1045B00099F08A7A91E009F490E090938702811152
:1045C00009C089E20E94780D0E940E0E80E0DF9102
:1045D000CF91089585E3F6CF80918702811104C0C1
:1045E00089E20E947F0DF0CF85E3FBCF81E0EFCF22
:1045F00090938D0280938C020895E0918C02F0914B
:104600008D02309721F00190F081E02D099480E037
:104610000895E0918C02F0918D02309799F02091ED
:104620002701222359F02091B40227FF07C0DC01A3
:104630002C9111962C93119725E02C930280F381F5
:10464000E02D09940895E0918C02F0918D0230974D
:1046500039F022E0DC012C930480F581E02D0994EF
:10466000089520918A0230918B022817390771F042
:1046700090938B0280938A02E0918C02F0918D02DC
:10468000309721F00680F781E02D0994089520915C
:104690008802309189022817390771F090938902B6
:1046A00080938802E0918C02F0918D02309721F086
:1046B0000084F185E02D09940895FC0132968091E3
:1046C0002701882321F08091B4029EE187FF96E0C4
:1046D00080E0915008F4089521912223D1F38F5F57
:1046E000F8CF662301F1209127012223F1F02091D8
:1046F000B40227FF1AC0462F4695469546954E317F
:1047000090F4677021E030E002C0220F331F6A95F9
:10471000E2F7840F911DFC01828190E02823392368
:1047200081E0232B69F480E00895FC01329608961D
:104730002191261721F0E817F907D1F7F4CF81E08E
:1047400008959C01FC0132969FEF80E0419146174D
:1047500051F09F3F19F4411101C0982F8F5F8630AF
:10476000A9F79F3F09F40895290F311D97FD3A9548
:10477000F90162830895FC0132960896219126136F
:1047800003C0DF0111971C92E817F907B9F70895E4
:10479000E62FE695E695E695EE3168F4E80FF92FF9
:1047A000F11D677021E030E001C0220F6A95EAF741
:1047B0008281822B82830895E62FE695E695E69521
:1047C000EE3170F4E80FF92FF11D677021E030E051
:1047D00001C0220F6A95EAF720958281282322835F
:1047E000089520912701222329F02091B40227FD6A
:1047F0000C94C8230C94A12320912701222329F093
:104800002091B40227FD0C94DC230C94BB23FC0103
:10481000329680912701882351F08091B40287FF5E
:1048200006C08EE1DF011D928A95E9F7089586E0C2
:10483000F9CF0895089508950C941B2480910703DF
:10484000843049F10E941C2480E00E9443051092AC
:104850008E0288E190E020E40FB6F894A89580934A
:1048600060000FBE2093600083B7817F846083BFA8
:1048700083B7816083BF7894889583B78E7F83BF29
:104880000FB6F894A89580916000886180936000CD
:10489000109260000FBE08950895CF930E941A24CD
:1048A0000E943B130E944C24C0E08C2F0E945712A0
:1048B000892B31F4CF5FC530C1F780E0CF910895E7
:1048C00081E0FCCF08950C9462240E94E9080E94C4
:1048D000FD220E9443050C9463241F921FB61F9271
:1048E00011248F939F93AF93BF9380918E02811178
:1048F00013C08091FF0290910003A0910103B09139
:1049000002034196A11DB11D8093FF029093000305
:10491000A0930103B0930203BF91AF919F918F9138
:104920001F901FBE1F90189582E084BD93E095BD37
:104930009AEF97BD80936E0008952FB7F8948091F9
:10494000FF0290910003A0910103B09102032FBFD9
:1049500008952FB7F8946091FF0270910003809141
:104960000103909102032FBF08959C014FB7F89463
:104970008091FF0290910003A0910103B091020386
:104980004FBF821B930B089578941F921FB61F92FE
:1049900011248F939F93AF93BF938091FF029091C7
:1049A0000003A0910103B09102030196A11DB11D66
:1049B0008093FF0290930003A0930103B09302033E
:1049C000BF91AF919F918F911F901FBE1F9018951F
:1049D00081E08093E00080E28093D8001092C900CB
:1049E0008FE19EE40197F1F700C0000087E090EBB3
:1049F000DC018093100390931103A0931203B093F2
:104A0000130388E19CE00FB6F894A89580936000AA
:104A10000FBE90936000FFCF9093D5018093D40197
:104A200008958091B202089590910703943029F57A
:104A300080938F0270939102609390029093E900AB
:104A40008FEF9091E800815095FD06C095ED9A9505
:104A5000F1F700008111F5CF8091E80085FF0DC0CE
:104A600050E040E063E070E08FE892E00E94A02711
:104A70008091E8008E778093E8000895BC0184E07F
:104A80000C941425BC0183E00C9414259C0184E053
:104A90008093E9009FEF8091E800915085FD06C06A
:104AA00085ED8A95F1F700009111F5CF8091E8002E
:104AB00085FF0CC050E040E066E070E0C9010E9454
:104AC000A0278091E8008E778093E8000895CF9327
:104AD000DF93EC01809127018823B1F18091B4022A
:104AE00087FF32C060E284E08093E9008FEF90910D
:104AF000E800815095FD06C095ED9A95F1F700000C
:104B00008111F5CF8091E80085FF1BC080912701BE
:104B100070E050E040E0811104C050E040E068E007
:104B200070E0CE010E94A0278091E8008E778093EC
:104B3000E80080E2FE01A2E9B2E001900D928A95C0
:104B4000E1F7DF91CF91089568E081E0CDCFCF9379
:104B5000FC01603221F580910703843001F5C0919A
:104B6000E900CF702091EC00922F917020FD90E829
:104B7000C92B82E08093E9008091E80080FF0CC09F
:104B800050E040E060E270E0CF010E94A0278091F9
:104B9000E8008E778093E800CF70C093E900CF9152
:104BA000089580910603811109C00E947F290E9407
:104BB000DC298091E20084608093E20008951092E5
:104BC0000603089508950895089542E061EC81E098
:104BD0000E94FB2842E261EC84E00E94FB2842E252
:104BE00061EC82E00E94FB2842E260EC83E00C94DE
:104BF000FB2880910903833009F461C030F48130CF
:104C0000D1F1823009F49DC008958A3009F489C039
:104C10008B3009F46FC0893009F050C080910803CF
:104C2000813209F04BC080910C0390910D030097E5
:104C300019F0029709F042C08091E800877F8093C5
:104C4000E8008091E80082FF35C09091F3008091E8
:104C5000F200029729F48091F1008B7F813021F4DA
:104C60008091F1008093B2028091E8008B7780936D
:104C7000E8000C942F2980910803813AF9F480917F
:104C8000E800877F8093E80080910C0390910D03EA
:104C9000892B61F460E282E992E070E00E943E2894
:104CA0008091E8008B778093E800089560E090E0C1
:104CB00080E0F3CF809107038111C3CF08958091E5
:104CC0000803813AD9F780910C0390910D03892B49
:104CD000A9F78091E800877F8093E8008091E80041
:104CE00080FFFCCF809127018093F1008091E80044
:104CF0008E77BDCF80910803813201F780910C033C
:104D000090910D03892BD1F68091E800877F8093E5
:104D1000E8000E942F2980910A03809327010C94B8
:104D2000E90880910803813249F68091E800877F85
:104D30008093E8000E942F2980910B038093B30297
:104D4000089580910803813A09F0B8CF8091E80076
:104D5000877F8093E8008091E80080FFFCCF8091FE
:104D6000B302C2CF84B7877F84BF0FB6F894A895EB
:104D700080916000886180936000109260000FBE97
:104D800080E890E00FB6F894809361009093610002
:104D90000FBE0C944D0F0E947F290E94DC29E2EE89
:104DA000F0E080818460808378940E94652C0E946A
:104DB000610F8DE191E00C94F822CF93DF93CDB792
:104DC000DEB7A0970FB6F894DEBF0FBECDBF8091BF
:104DD0000703853031F480910703853091F10E94FB
:104DE00065240E946B0F80910703843009F583E0EE
:104DF0008093E9008091E80082FF1AC08091E8006A
:104E000090E085FF09C050E040E060E270E0CE0134
:104E100001960E94EF2791E08091E8008B778093C4
:104E2000E800992329F060E2CE0101960E949A1EC3
:104E3000A0960FB6F894DEBF0FBECDBFDF91CF9125
:104E400008950E941E2480910503882321F20E9468
:104E50004D24882309F4BFCF0E948A270E94E908C5
:104E6000BACF0C943327292F33272330310521F172
:104E700068F42130310509F443C02230310509F4CA
:104E800044C090E080E030E020E026C021323105CF
:104E900051F122323105A9F76330710590F7FB011A
:104EA000EE0FFF1FE953FE4F208131816C537E4F7F
:104EB000FB01808190E010C099278130910581F03D
:104EC000009729F00297E9F6E3EBF4E002C0E7ED82
:104ED000F4E0849190E09F01FA01318320830895EA
:104EE000EFEBF4E0F6CF6330710558F6660F771FED
:104EF000FB01E353FE4F2081318189E090E0ECCF4C
:104F000082E190E026E335E0E7CF8BE590E02BED02
:104F100034E0E2CF80E189BD82E189BD09B400FEC1
:104F2000FDCF8091D8008F7D8093D8008091E000E4
:104F300082608093E0008091E00081FDFCCF0895C5
:104F4000AF92BF92CF92DF92FF920F931F93CF93B6
:104F5000DF936C01EB018A010E944E29F82E81112A
:104F600023C00115110539F0F80180819181C81B1A
:104F7000D90BC80ED91EB12CA12C2097A9F0809175
:104F8000E80085FD22C08091E8008E778093E800DC
:104F900001151105A1F0F80180819181A80EB91EBB
:104FA000B182A08285E0F82E8F2DDF91CF911F91E5
:104FB0000F91FF90DF90CF90BF90AF9008950E9427
:104FC0004E298823D1F2F82EEFCFF60181916F019F
:104FD0008093F1002197FFEFAF1ABF0ACECFAF92B7
:104FE000BF92CF92DF92FF920F931F93CF93DF93E5
:104FF0006C01EB018A010E944E29F82E811123C019
:105000000115110539F0F80180819181C81BD90B78
:10501000C80ED91EB12CA12C2097A9F08091E800D0
:1050200085FD22C08091E8008B778093E800011510
:105030001105A1F0F80180819181A80EB91EB182FD
:10504000A08285E0F82E8F2DDF91CF911F910F91D7
:10505000FF90DF90CF90BF90AF9008950E944E29AF
:105060008823D1F2F82EEFCF8091F100F6018193E1
:105070006F012197FFEFAF1ABF0ACECFFC018091DD
:105080000E0390910F0386179707A0F06115710525
:1050900029F49091E8009E779093E80090E06115E4
:1050A000710551F4911108C08091E80082FF34C06D
:1050B00080E00895BC01F2CF809107038823C1F1FD
:1050C0008530C1F18091E80083FD30C08091E80017
:1050D00082FDEACF8091E80080FFE1CF8091F3006C
:1050E0002091F200382F6115710519F02830310533
:1050F00058F091E02830310509F090E02091E80067
:105100002E772093E800CBCF81918093F1006150FE
:1051100071092F5F3F4FE7CF80910703882341F04C
:10512000853041F08091E80083FFBECF81E0089593
:1051300082E0089583E00895FC0180910E03909130
:105140000F0386179707A0F06115710529F4809168
:10515000E8008E778093E80090E06115710551F4C6
:10516000911108C08091E80082FF35C080E0089569
:10517000BC01F2CF809107038823C9F18530C9F1C2
:105180008091E80083FD31C08091E80082FDEACF84
:105190008091E80080FFE1CF8091F3002091F20040
:1051A000382F6115710519F02830310558F091E05C
:1051B0002830310509F090E08091E8008E778093E7
:1051C000E800CBCF84918093F10031966150710952
:1051D0002F5F3F4FE6CF80910703882341F0853052
:1051E00041F08091E80083FFBDCF81E0089582E027
:1051F000089583E00895982F973028F08F7080935A
:10520000E90081E008959093E900242F762F50E083
:10521000981731F07091EC002091ED005091F00062
:1052200021FD02C09F5FE8CF3091EB003E7F3093BD
:10523000EB003091ED003D7F3093ED003091EB00BD
:1052400031603093EB007093EC002093ED005093AD
:10525000F0002091EE0027FDE5CF80E008958091D9
:10526000080387FF13C08091E80082FF06C0809189
:10527000E8008B778093E80004C0809107038111D8
:10528000F2CF0895809107038823D9F38091E80035
:1052900080FFF8CF8091E8008E77ECCF2091E4007A
:1052A0003091E50095E6A9012091EC00822F8170F4
:1052B00020FF06C08091E80080FF06C080E00895CE
:1052C0002091E80022FD1AC080910703882389F00D
:1052D000853089F08091EB0085FD0FC02091E400BE
:1052E0003091E50042175307F9F29150E1F684E05E
:1052F000089582E0089583E0089581E008950E9472
:10530000ED290E94F529E0EEF0E080818160808344
:10531000E8EDF0E080818F77808319BCA7EDB0E0E5
:105320008C918E7F8C9380818F7E80831092060378
:1053300008950F931F93CF93DF930E94ED290E944E
:10534000F529C8EDD0E088818F77888388818068CF
:10535000888388818F7D888319BC109207031092FF
:105360000303109205031092040300EE10E0F8010D
:1053700080818B7F808388818160888342E060E0C8
:1053800080E00E94FB28E1EEF0E080818E7F808348
:10539000E2EEF0E08081816080838081886080839C
:1053A000F80180818E7F8083888180618883DF918E
:1053B000CF911F910F910895E8EDF0E080818F7EED
:1053C0008083E7EDF0E080818160808384E082BFAC
:1053D00081E0809306030C949929E8EDF0E0808148
:1053E0008E7F80831092E20008951092DA0010926E
:1053F000E10008951F920F920FB60F9211242F9380
:105400003F934F935F936F937F938F939F93AF934C
:10541000BF93EF93FF938091E10082FF0BC08091D7
:10542000E20082FF07C08091E1008B7F8093E10062
:105430000E94642C8091DA0080FF19C08091D8000E
:1054400080FF15C08091DA008E7F8093DA00809112
:10545000D90080FF96C080E189BD82E189BD09B491
:1054600000FEFDCF81E0809307030E94D12580914B
:10547000E10080FF19C08091E20080FF15C080919B
:10548000E2008E7F8093E2008091E2008061809351
:10549000E2008091D80080628093D80019BC85E03A
:1054A000809307030E94E3258091E10084FF2BC0D5
:1054B0008091E20084FF27C080E189BD82E189BD3F
:1054C00089B5982F917080FFFBCF8091D8008F7D98
:1054D0008093D8008091E1008F7E8093E1008091DD
:1054E000E2008F7E8093E2008091E20081608093F1
:1054F000E20080910303882309F449C084E080938B
:1055000007030E94E4258091E10083FF29C0809178
:10551000E20083FF25C08091E100877F8093E10056
:1055200082E080930703109203038091E1008E7F55
:105530008093E1008091E2008E7F8093E200809171
:10554000E20080618093E20042E060E080E00E943F
:10555000FB288091F00088608093F0000E94E22593
:10556000FF91EF91BF91AF919F918F917F916F913B
:105570005F914F913F912F910F900FBE0F901F9011
:10558000189519BC109207030E94DF2570CF8091F7
:10559000E30087FD93E090930703B3CF1F920F9230
:1055A0000FB60F9211242F933F934F935F936F93F6
:1055B0007F938F939F93AF93BF93CF93DF93EF939B
:1055C000FF93D091E900DF708091EC00C82FC1708B
:1055D00080FDC0E81092E9008091F000877F809301
:1055E000F00078940E94122B1092E9008091F00054
:1055F00088608093F000CD2BCF70C093E900FF91BD
:10560000EF91DF91CF91BF91AF919F918F917F915A
:105610006F915F914F913F912F910F900FBE0F901F
:105620001F9018951F93CF93DF93CDB7DEB7AA973E
:105630000FB6F894DEBF0FBECDBF88E093E0209197
:10564000F100FC012193CF01F3E080319F07B9F70E
:105650000E94F9258091E80083FF1EC18091080314
:10566000909109039A3008F017C1E92FF0E0E35652
:10567000F24D0C94CA2C803899F0823809F00CC194
:1056800080910C038F70873008F006C18093E90089
:105690008091EB0085FB882780F91092E90006C015
:1056A0008091040390910503911182609091E8002C
:1056B000977F9093E8008093F1001092F100809121
:1056C000E8008E77E5C0882309F4D3C0823009F062
:1056D000E3C080910A038111D6C080910C038F70C2
:1056E0002FEF280F263008F0D7C08093E9002091D3
:1056F000EB0020FFC8C0933031F48091EB00806252
:105700008093EB00C0C09091EB0090619093EB0010
:1057100021E030E001C0220F8A95EAF72093EA00E9
:105720001092EA008091EB008860EACF8111B4C04A
:1057300010910A031F778091E3008078812B80937A
:10574000E3008091E800877F8093E8000E942F2982
:105750008091E80080FFFCCF8091E3008068809317
:10576000E30082E0111183E08093070395C0805825
:10577000823008F091C080910A0390910B038C3D18
:1057800023E09207A1F583E08A838AE289834FB7F9
:10579000F894DE01139620E03EE051E2E32FF0E0C2
:1057A00050935700E49120FF03C0E295EF703F5FF4
:1057B000EF708E2F90E0EA30C0F0C7968D939D93E6
:1057C0002F5F243159F74FBF8091E800877F809386
:1057D000E8006AE270E0CE0101960E943E288091C6
:1057E000E8008B778093E80057C0C096E7CF6091C0
:1057F0000C0370910D03AE014F5F5F4F0E94312784
:10580000BC01892B09F448C09091E800977F9093E0
:10581000E80089819A810E949C28E1CF8038E1F5D7
:105820008091E800877F8093E80080910303809354
:10583000F10045CF811130C090910A03923060F59C
:105840008091E800877F8093E800909303030E9493
:105850002F2980910303882311F084E005C08091F3
:10586000E30087FDFACF81E0809307030E94E525DE
:1058700013C080910A03813079F481E0933009F0FC
:1058800080E0809305031092E9008091E800877F13
:105890008093E8000E942F298091E80083FF0AC0CE
:1058A0008091E800877F8093E8008091EB00806220
:1058B0008093EB00AA960FB6F894DEBF0FBECDBF63
:1058C000DF91CF911F9108950895CF9380910703A1
:1058D0008823A1F0C091E900CF709091EC00892F4E
:1058E000817090FD80E8C82B1092E9008091E8005B
:1058F00083FD0E94122BCF70C093E900CF910895D1
:10590000AA1BBB1B51E107C0AA1FBB1FA617B707E5
:1059100010F0A61BB70B881F991F5A95A9F7809501
:105920009095BC01CD01089597FB072E16F40094C5
:1059300007D077FD09D00E94802C07FC05D03EF4EB
:10594000909581959F4F0895709561957F4F08952B
:10595000A1E21A2EAA1BBB1BFD010DC0AA1FBB1F73
:10596000EE1FFF1FA217B307E407F50720F0A21BE5
:10597000B30BE40BF50B661F771F881F991F1A9452
:1059800069F760957095809590959B01AC01BD017C
:10599000CF010895EE0FFF1F0590F491E02D0994BB
:1059A00069279627692778278727782708950E94EF
:1059B000DF2C332312F48A1B9B0B0C94F02CA29F38
:1059C000B001B39FC001A39F700D811D1124911DD3
:1059D000B29F700D811D1124911D08950E94DF2C2E
:1059E000B7FF0895821B930B08950E94DF2CA59F9B
:1059F000900DB49F900DA49F800D911D11240895CA
:105A0000B7FF0C94F52C0E94F52C821B930B089584
:105A1000FC014150504030F001900616D1F731970B
:105A2000CF010895882799270895FB01DC0104C060
:105A30008D910190801921F441505040C8F7881B86
:105A4000990B0895F999FECF92BD81BDF89A9927D7
:105A500080B50895A6E1B0E044E050E00C945C2DE0
:105A6000A8E1B0E042E050E00C945C2D262FF999BB
:105A7000FECF92BD81BDF89A019700B4021639F0AD
:105A80001FBA20BD0FB6F894FA9AF99A0FBE08957E
:105A90000396272F0E94372D0E94362D252F0E9416
:105AA000372D242F0C94372D0196272F0E94372D48
:105AB0000C94362DDC01CB01FC01F999FECF06C018
:105AC000F2BDE1BDF89A319600B40D9241505040BC
:105AD000B8F70895F894FFCFD706D7062F072F07FA
